:100000000C9497000C94B4000C94B4000C94B400BD
:100010000C94B4000C94B4000C94B4000C94B40090
:100020000C94B4000C94B4000C94B4000C94B40080
:100030000C94B4000C94F9030C94B4000C94B40028
:100040000C94B4000C94B4000C94B4000C94B40060
:100050000C94B4000C9470050C94B4000C94B4008F
:100060000C9499090C94B40014031B03220343035A
:10007000430343034303430343032903290329039E
:100080002903290329032903290329032903320307
:1000900032033203320332033203320332033203B8
:1000A00032033B033B033B033B03630873088308B2
:1000B000E408E408E408E408E408E4089108910886
:1000C0009108910891089108910891089108910868
:1000D000A308A308A308A308A308A308A308A308C8
:1000E000A308A308B408B408B408B40807090C09A5
:1000F000110916091B0928092D0932093F0944096C
:100100004409440944094409440944094409440987
:1001100044094C094C094C094C094C094C094C093F
:100120004C094C094C095409540954095409112427
:100130001FBECFEFD8E0DEBFCDBF11E0A0E0B1E041
:10014000E6EFF4E102C005900D92A433B107D9F7B0
:1001500022E0A4E3B1E001C01D92AA30B207E1F7AA
:100160000E945E060C94790A0C940000FC01138630
:1001700014861082128211821482138210861186D4
:100180001782168215820895FC01A585B6859C917B
:100190008785892B8C93A089B1899C9182898095D0
:1001A00089238C93108681E081870895FC01A585C1
:1001B000B6859C918785809589238C93A089B18988
:1001C0009C918289892B8C9381E080871186089588
:1001D000FC01A585B6859C918785809589238C93A4
:1001E000A089B1899C918289809589238C931086FE
:1001F000118608950F931F93CF93DF93EC010D8128
:100200008E81801720F098859111E8C05AC010E0C7
:10021000081B11098885882329F00115110511F49F
:1002200001E010E08A85811115C0CE010E94E8002E
:100230002FEF89EF90E0215080409040E1F700C01F
:10024000000081E08F83888719861C821B828A8147
:1002500081111E8281E08A872A81222311F09AE08F
:1002600001C09CE080913B01899FC00111249595BC
:10027000879595958795809FA001819F500D909FB0
:10028000500D11248B819C814817590748F08881B3
:10029000811106C0CE010E94D60081E08F8311C07B
:1002A0008F81882319F08E81080F0E838E81843010
:1002B00010F0211103C01F821C821B82CE010E94FC
:1002C000E8008D810E81801720F0998591118AC0F8
:1002D00068C010E0081B11098985882329F00115E1
:1002E000110511F401E010E08A85882391F0CE0118
:1002F0000E94E8002FEF89EF90E02150804090406D
:10030000E1F700C0000081E08F83898718861C8296
:100310001B821A8680913B014D814423C1F090E0FD
:100320009C01220F331F880F991F880F991F880F78
:10033000991F820F931F9595879595958795809F17
:100340009001819F300D909F300D11240EC080913F
:100350003A0190E09C01220F331F880F991F880FEC
:10036000991F880F991F280F391F8B819C8128178F
:10037000390748F08981811106C0CE010E94C4006E
:1003800081E08F830EC08F81882329F0442371F18F
:100390008E81801B8E831F821C821B82CE010E9455
:1003A000E8008091390190E09C01220F331F880FF3
:1003B000991F880F991F880F991F820F931F2B81F8
:1003C0003C812817390740F08A81882311F081E0A9
:1003D0008B871F821C821B828E810AC010E0081B43
:1003E00011091BCF10E0081B110979CF1E82D3CF52
:1003F000DF91CF911F910F910895EF92FF920F938C
:100400001F93CF93DF9388E190E00E94590A809375
:100410003B018FE19EE40197F1F700C0000080915D
:100420003B019DEF980F923680F08B3071F08BE09E
:1004300080933B016BE088E190E00E946B0ACFE182
:10044000DEE42197F1F700C000008AE190E00E940D
:10045000590A80933A018FE19EE40197F1F700C0B9
:10046000000080913A019DEF980F923680F08E3116
:1004700071F08EE180933A016EE18AE190E00E9492
:100480006B0ACFE1DEE42197F1F700C0000089E1BB
:1004900090E00E94590A809339018FE19EE4019710
:1004A000F1F700C0000080913901893C80F0863965
:1004B00071F086E98093390166E989E190E00E9454
:1004C0006B0ACFE1DEE42197F1F700C000004AE0BB
:1004D00050E06EE070E080E791E00E94490A8FE111
:1004E0009EE40197F1F700C00000E0E7F1E0C0E210
:1004F000D1E02AE731E0DE0190E041E080818150E7
:10050000833618F08C918083942F31961296E217DF
:10051000F307A1F7992371F04AE050E06EE070E034
:1005200080E791E00E94610A8FE19EE40197F1F774
:1005300000C000004AE050E064E070E08CE891E028
:100540000E94490A8FE19EE40197F1F700C0000084
:10055000ECE8F1E026E931E090E041E08081815073
:10056000833618F088818083942F31962296E21783
:10057000F307A1F7992341F04AE050E064E070E00E
:100580008CE891E00E94610A44E050E060E070E095
:1005900084E391E00E94490ACFE1DEE42197F1F77C
:1005A00000C00000A4E3B1E0E0E0F1E060E271E04F
:1005B00010E001E07D018C9190E0AF012481358154
:1005C0002817390728F0228133818217930728F4EE
:1005D000EA018881E7018883102F11963896E61783
:1005E000F70741F7112371F044E050E060E070E05C
:1005F00084E391E00E94610A8FE19EE40197F1F7A4
:1006000000C00000DF91CF911F910F91FF90EF90FC
:100610000895F89490E0FC013197E132F10598F5E6
:10062000EC5CFF4F0C94340A60913B0188E190E050
:100630000E946B0A28C060913A018AE190E00E9412
:100640006B0A21C06091390189E190E00E946B0A38
:100650001AC04AE050E06EE070E080E791E00E944E
:10066000610A11C04AE050E064E070E08CE891E07B
:100670000E94610A08C044E050E060E070E084E35A
:1006800091E00E94610A78948FE19EE40197F1F76E
:1006900000C000000895FC011082A281B3819C91EA
:1006A00084818923A1F485819181891740F0878114
:1006B000882311F081E08087178281E003C08F5F7B
:1006C000858380E091819F3F31F4158204C01582BB
:1006D00081E0878380E09681911180E008950F93F7
:1006E0001F93CF93DF938C01DC014D915C911197A7
:1006F0001D968C911D9790E04817590730F056963B
:100700008C9190E08417950728F4E801188E1F8AD1
:100710001B8E58C081E0F801838FD80124E030E0BF
:10072000BD011D968C911D9790E084179507C8F424
:100730001E968C911E9790E08417950790F0129664
:100740008C911297E8019C85891718F0388F2F8BB0
:1007500003C08F5FED018A839F3F29F4EB011A826A
:1007600002C0EB011A822150310911962F3FDFEFB1
:100770003D07B1F6D8014D915C9124E030E0DF01F6
:10078000868990E048175907A0F4858990E04817BA
:10079000590778F08385E8019C85891718F03A8F0E
:1007A000298F02C08F5F83879F3F29F41B961C927D
:1007B00002C01B961C922150310931972F3FDFEF69
:1007C0003D07E9F6DF91CF911F910F910895FC014C
:1007D00090818281891750F483819181891718F063
:1007E00081E0848304C08F5F838301C0138284818E
:1007F00008951F920F920FB60F921124CF92DF929D
:10080000EF92FF920F931F932F933F934F935F931A
:100810006F937F938F939F93AF93BF93CF93DF9308
:10082000EF93FF938091F101882339F0EAEEF1E034
:10083000838194810196948383838091ED019091CB
:10084000EE01019621F41092EE011092ED018091DB
:10085000DE01882339F0E7EDF1E083819481019690
:10086000948383838091DA019091DB01019621F4D6
:100870001092DB011092DA0180914E018F5F80931C
:100880004E0199E8899F912D112492959F70B82F60
:10089000AEE19A9FB0191124B11107C0882371F0FD
:1008A0001092D20191E09093D101843638F081E02A
:1008B0008093D2011092D10110924E0188EC91E008
:1008C0000E944B038093C8018FEB91E00E944B0381
:1008D0008093BF0186EB91E00E944B030F2EF6EB55
:1008E000CF2EF1E0DF2EF02DF60180838DEA91E02E
:1008F0000E944B030F2EFDEAEF2EF1E0FF2EF02DAC
:10090000D7018C9384EA91E00E944B0304EA11E042
:10091000F80180838BE991E00E944B03CBE9D1E0A1
:100920008883809144019091450190938001809348
:100930007F018FE791E00E946F03809146019091C3
:100940004701909364018093630183E691E00E94E4
:100950006F038091420180935E018EE591E00E94D9
:10096000E703809140018093590189E591E00E945D
:10097000E70380913E018093540184E591E00E9459
:10098000E70380913C0180934F018FE491E00E9446
:10099000E703EAEEF1E0D6018C918183D7018C91D7
:1009A0008083E7EDF1E0D8018C9181838881808399
:1009B000809138019FEF980F993018F48F5F8093E2
:1009C00038018BE396EF9093850080938400FF912C
:1009D000EF91DF91CF91BF91AF919F918F917F91D7
:1009E0006F915F914F913F912F911F910F91FF90C8
:1009F000EF90DF90CF900F900FBE0F901F90189543
:100A0000E8ECF1E0108216821086158225E0218341
:100A100083E290E09383828331E03483EFEBF1E073
:100A2000108210861682158221839383828382E04E
:100A30008483E6EBF1E010821582818329E230E0C5
:100A40003383228390E19483EDEAF1E010821582F2
:100A500081833383228390E29483E4EAF1E010827D
:100A6000158281833383228390E49483EBE9F1E060
:100A70001082158281833383228380E884830895E2
:100A8000EEE5F1E014821082A4E3B1E011969C91AE
:100A90001197918313828C91282F220F220F820F9E
:100AA0008283E9E5F1E014821082918313828283CC
:100AB000E4E5F1E01482108213969C9113979183E0
:100AC000138212968C91282F220F220F820F82837D
:100AD000EFE4F1E0148210829183138282830895FF
:100AE0001F920F920FB60F9211242F933F936F9383
:100AF0007F938F939F93AF93BF93EF93FF93F8945C
:100B0000ECE7F0E080819081907F90838F7082305D
:100B100009F440C028F4882369F0813019F171C0CC
:100B2000863009F453C0873009F45EC0833009F081
:100B300068C03EC02091780030917900ADECBCECEB
:100B40000E943A0A969587959695879596958795EA
:100B50009093470180934601ECE7F0E0808181604B
:100B6000808356C02091780030917900ADECBCECC8
:100B70000E943A0A969587959695879596958795BA
:100B80009093450180934401ECE7F0E0808182601E
:100B900080833EC0809178009091790090934301CA
:100BA00080934201ECE7F0E080818360808330C075
:100BB0008091780090917900909341018093400159
:100BC000ECE7F0E080818660808322C0809178002D
:100BD0009091790090933F0180933E01ECE7F0E023
:100BE00080818760808314C0809178009091790023
:100BF00090933D0180933C01ECE7F0E0808180839D
:100C000007C0ECE7F0E08081807F80838081808373
:100C10007894EAE7F0E0808180648083FF91EF912F
:100C2000BF91AF919F918F917F916F913F912F9144
:100C30000F900FBE0F901F901895E3E6F1E082E051
:100C40008487108E178A128E118E138EEFE7F1E0D3
:100C50008487108E178A128E118E138EEAE7F0E0C9
:100C600080818D68808380E480937C0080818064B3
:100C7000808308951F93CF93DF93EAEEF1E0CBE2F8
:100C8000D0E0D687C58781E0878785E290E0918BA9
:100C9000808B14E0128BCF010E94B600E7EDF1E0EB
:100CA000D687C5871787D18BC08B88E0828BCF0111
:100CB0000E94B600DF91CF911F910895CF93DF93EB
:100CC00000D0CDB7DEB78DE08AB984E084B9E0E624
:100CD000F0E08081886180838EE0808310928000C4
:100CE00083E0809381008BE396EF9093850080935F
:100CF000840078940E94FD010E9400050E943A063B
:100D00000E9440050E941D060E94790981E086BB71
:100D100080936F000F2EFEE5EF2EF1E0FF2EF02DF9
:100D20000F2EF8EC4F2EF1E05F2EF02D0F2EF9E58F
:100D30008F2EF1E09F2EF02D0F2EFFEB2F2EF1E0E6
:100D40003F2EF02D0F2EF4E56F2EF1E07F2EF02DCB
:100D500047ED51E049835A830FE411E00F2EF6EB83
:100D6000CF2EF1E0DF2EF02D0F2EFDEAAF2EF1E0B9
:100D7000BF2EF02DA895D70114968C9181116CC0CF
:100D8000F4018481811168C0D2018C91882339F0EB
:100D9000EAEEF1E081E0828384E085832DC08091DA
:100DA000EC01882369F0EAEEF1E015828681811179
:100DB00023C08091F30181111FC01092EC011CC06F
:100DC00080917E01882319F080917A0106C080917C
:100DD000980190919A01992379F081110BC090911B
:100DE000F001911107C09091F301911103C090910E
:100DF000F20191118093EF01F2018085882351F077
:100E0000EAEEF1E01386D20118961C9284858111D6
:100E100011C061C28091F60181110CC08091F50171
:100E2000882309F458C2F1018081811150C21092C7
:100E3000F50151C2EAEEF1E083858487882339F019
:100E40008091E201882319F084E08093EF018AEE1B
:100E500091E00E94FA0008C08AEE91E00E94E8004A
:100E600081E0D20116968C93F301848181116EC0CA
:100E7000D80114968C91811169C0F1018081882379
:100E800039F081E08093D90184E08093DC012DC0AA
:100E90008091D901882369F01092DC018091DD01F5
:100EA000811123C08091E00181111FC01092D901EE
:100EB0001CC080919A01882319F08091960106C088
:100EC00080917C0190917E01992379F081110BC072
:100ED0009091DD01911107C09091E001911103C043
:100EE0009091DF0191118093DC01D10118968C91D2
:100EF0001897882349F01092E20118961C9280916D
:100F0000E301811111C0F0C18091E30181110CC096
:100F10008091E201882309F4E7C1F2018081811107
:100F2000DFC11092E201E0C18091E2018093E30110
:100F3000882339F08091F501882319F084E08093AB
:100F4000DC0189819A810E94FA0008C089819A8116
:100F50000E94E80081E0D10116968C93F20187810E
:100F6000882359F08681882341F0D70114961C927A
:100F7000F4011482D20116961C92F1018781882314
:100F800059F08681882341F0D30114961C92F80110
:100F90001482D10116961C92EAEEF1E0618560930D
:100FA000D40180858093D6019091E0019093D30184
:100FB0002091DF012093D501D601EC913E2F330F14
:100FC000330FD501EC91EE0FEE0FEE0FE32B462F12
:100FD000482B4E2BE4EAF1E0308150E1359FF001DF
:100FE0001124E42BABE9B1E03C91B0E23B9FA001BE
:100FF00011244E2BF201308150E4359FF001112471
:10100000E42BD1013C91B0E83B9FA00111244E2B71
:10101000392F322B330F432B40934D01880F880F0C
:10102000660F660F660F862B8360E0E12E9F9001AE
:101030001124482F422BF0E29F9F90011124242B72
:10104000D70114964C91F4019481942BF0E49F9F66
:10105000A0011124422BD30114962C91F801948104
:10106000922BF0E89F9F90011124242B20934C0198
:101070008091D201882309F4A9C084E080930702FB
:10108000809306020E9488091092D2018091080282
:101090008130E1F710923801EDEFF1E0818180932A
:1010A0004A01928190934901838180934801482F9E
:1010B00050E0FA013197E132F10508F085C0EB5AB2
:1010C000FF4F0C94340A80913B01981709F47EC0BD
:1010D0008DEF890F823608F09BE090933B0181E011
:1010E0000E94090373C080913A01981709F46EC0F9
:1010F0008DEF890F823608F09EE190933A0182E0ED
:101100000E94090363C080913901981709F45EC0F9
:10111000993C08F096E99093390183E00E94090315
:1011200055C0282F30E02A503109F901ED59FE4F02
:101130004585941709F44AC0F901ED59FE4F95878A
:101140000E94090343C0282F30E024513109F901DE
:10115000E158FE4F45859417C9F1F901E158FE4F5A
:1011600095870E94090332C0282F30E02E513109A3
:10117000F901EC5CFE4F4081941741F150E0F90118
:10118000EE0FFF1FEE0FFF1FEE0FFF1FE050FF4F90
:10119000648175816417750770F4F901EE0FFF1F04
:1011A000EE0FFF1FEE0FFF1FE050FF4F62817381B4
:1011B0004617570758F0F901EC5CFE4F90830E94E8
:1011C00009030E94400502C0109249018091D1019B
:1011D000882309F4CFCD81E08093070283E08093D8
:1011E000060280914D01EDEFF1E0808380914C018A
:1011F000818320914A01822F90E0FC013197E132F6
:10120000F10508F059C0EA58FF4F0C94340A809158
:101210003B0180934B0152C080913A0180934B0176
:101220004DC08091390180934B0148C080914601A7
:1012300080934B0143C0EAEEF1E08581880F982F3F
:10124000990F990F890F9681890F80934B0136C0B2
:1012500080917E0180934B0131C080914401809345
:101260004B012CC08091DC01880F982F990F990FAA
:10127000890F9091DD01890F80934B011FC08091F0
:101280009A0180934B011AC0E22FF0E0ED59FE4F16
:10129000838180934B0112C0E22FF0E0E858FE4FAB
:1012A000808180934B010AC0E22FF0E0EA5EFE4F9E
:1012B000808180934B0102C010924B0180914B01C1
:1012C0008093FF010E9491091092D10145CD81E0E8
:1012D0008093F601B5CDEAEEF1E083858487B7CD42
:1012E00081E08093E30126CE8091E2018093E301C7
:1012F00028CE81E08093080288E08093B8001092A5
:10130000B9008FEF8093BB0084E08093BC00089508
:101310001092080281E08093050285EA8093BC0068
:101320000895109208021092050285EA8093BC008D
:1013300008951F920F920FB60F9211242F933F938F
:101340008F939F93EF93FF938091B900883229F197
:1013500048F4803109F446C08831B9F0883009F08A
:1013600072C00AC0803509F444C0883509F45FC0F2
:10137000803409F068C049C0109209028EEC809355
:10138000BB0085E88093BC0064C080910702809315
:10139000BB0085E88093BC005CC080910502813071
:1013A00021F485EA8093BC0054C090910902809199
:1013B0000602981780F4E091090281E08E0F809375
:1013C0000902F0E0E350FE4F80818093BB0085E886
:1013D0008093BC003EC084E98093BC0081E0809390
:1013E000080237C08FEC8093BB0085E88093BC0077
:1013F00030C0E091090281E08E0F80930902F0E095
:101400008091BB00E350FE4F80832091090230E0C1
:101410008091060290E001972817390724F485ECA3
:101420008093BC0016C085E88093BC0012C0E09198
:10143000090281E08E0F80930902F0E08091BB00E9
:10144000E350FE4F808384E98093BC0081E0809369
:101450000802FF91EF919F918F913F912F910F90F3
:101460000FBE0F901F901895EE0FFF1F0590F4917F
:10147000E02D0994A29FB001B39FC001A39F700DFE
:10148000811D1124911DB29F700D811D1124911D8C
:101490000895DC01CB01FC01F999FECF06C0F2BD35
:1014A000E1BDF89A319600B40D9241505040B8F722
:1014B0000895F999FECF92BD81BDF89A992780B51C
:1014C0000895DC01CB0103C02D910E946C0A4150AC
:1014D0005040D0F70895262FF999FECF1FBA92BD3C
:1014E00081BD20BD0FB6F894FA9AF99A0FBE019605
:0614F0000895F894FFCFFF
:1014F6000A000100320000000A0001006300020039
:101506000A000100320000000A0001006300020028
:101516000A0019001E00230028003D004200470073
:041526004C005A001B
:00000001FF
