:100000000C9497000C94B4000C94B4000C94B400BD
:100010000C94B4000C94B4000C94B4000C94B40090
:100020000C94B4000C94B4000C94B4000C94B40080
:100030000C94B4000C94F1030C94B4000C94B40030
:100040000C94B4000C94B4000C94B4000C94B40060
:100050000C94B4000C9468050C94B4000C94B40097
:100060000C9455090C94B4000C0313031A033B03BE
:100070003B033B033B033B033B03210321032103DE
:1000800021032103210321032103210321032A0347
:100090002A032A032A032A032A032A032A032A03F8
:1000A0002A0333033303330333032F083F084F0876
:1000B000B008B008B008B008B008B0085D085D0826
:1000C0005D085D085D085D085D085D085D085D0808
:1000D0006F086F086F086F086F086F086F086F0868
:1000E0006F086F088008800880088008D308D80847
:1000F000DD08E208E708F408F908FE080D0912090E
:100100001209120912091209120912091209120917
:1001100012091A091A091A091A091A091A091A09CF
:100120001A091A091A092209220922092209112485
:100130001FBECFEFD8E0DEBFCDBF11E0A0E0B1E041
:10014000EEE6F4E102C005900D92A433B107D9F7B1
:1001500022E0A4E3B1E001C01D92A830B207E1F7AC
:100160000E9456060C94350A0C940000FC0113867C
:10017000108212821182148213821086118681E00D
:100180008783168215820895FC01A485B5859C910C
:100190008685892B8C93A785B0899C9181898095D0
:1001A00089238C93108681E081870895FC01A485C2
:1001B000B5859C918685809589238C93A785B08988
:1001C0009C918189892B8C9381E080871186089589
:1001D000FC01A485B5859C918685809589238C93A7
:1001E000A785B0899C918189809589238C931086FD
:1001F000118608950F931F93CF93DF93EC010D8128
:100200008E81801720F098859111E0C055C010E0D4
:10021000081B11098885882329F00115110511F49F
:1002200001E010E08A85811115C0CE010E94E8002E
:100230002FEF89EF90E0215080409040E1F700C01F
:10024000000081E08F83888719861C821B828A8147
:1002500081111E8281E08A8780913B0190E09C01A0
:10026000220F331F880F991F880F991F880F991F1E
:10027000820F931F9595879595958795809F9001FF
:10028000819F300D909F300D11248B819C81281708
:10029000390748F08881811106C0CE010E94D6003E
:1002A00081E08F8309C08F81882319F08E81080F28
:1002B0000E83CE010E94E8008D810E81801720F010
:1002C0009985911187C068C010E0081B11098985C4
:1002D000882329F00115110511F401E010E08A8549
:1002E000882391F0CE010E94E8002FEF89EF90E083
:1002F000215080409040E1F700C0000081E08F83F2
:10030000898718861C821B821A8680913B014D8149
:100310004423C1F090E09C01220F331F880F991FE6
:10032000880F991F880F991F820F931F95958795A6
:1003300095958795809F9001819F300D909F300DFE
:1003400011240EC080913A0190E09C01220F331FCE
:10035000880F991F880F991F880F991F280F391F21
:100360008B819C812817390748F08981811106C04B
:10037000CE010E94C40081E08F830EC08F8188234C
:1003800029F0442359F18E81801B8E831F821C82A9
:100390001B82CE010E94E8008091390190E09C010F
:1003A000220F331F880F991F880F991F880F991FDD
:1003B000820F931F2B813C812817390728F081E099
:1003C0008B871F821C821B828E810AC010E0081B53
:1003D000110923CF10E0081B11097CCF1E82D6CF54
:1003E000DF91CF911F910F910895EF92FF920F939C
:1003F0001F93CF93DF9388E190E00E94150A8093CA
:100400003B018FE19EE40197F1F700C0000080916D
:100410003B019DEF980F923680F08B3071F08BE0AE
:1004200080933B016BE088E190E00E94270ACFE1D6
:10043000DEE42197F1F700C000008AE190E00E941D
:10044000150A80933A018FE19EE40197F1F700C00D
:10045000000080913A019DEF980F923680F08E3126
:1004600071F08EE180933A016EE18AE190E00E94A2
:10047000270ACFE1DEE42197F1F700C0000089E10F
:1004800090E00E94150A809339018FE19EE4019764
:10049000F1F700C0000080913901893C80F086347A
:1004A00071F086E48093390166E489E190E00E946E
:1004B000270ACFE1DEE42197F1F700C000004AE00F
:1004C00050E06EE070E080E791E00E94050A8FE165
:1004D0009EE40197F1F700C00000E0E7F1E0C0E220
:1004E000D1E02AE731E0DE0190E041E080818150F7
:1004F000833618F08C918083942F31961296E217F0
:10050000F307A1F7992371F04AE050E06EE070E044
:1005100080E791E00E941D0A8FE19EE40197F1F7C8
:1005200000C000004AE050E064E070E08CE891E038
:100530000E94050A8FE19EE40197F1F700C00000D8
:10054000ECE8F1E026E931E090E041E08081815083
:10055000833618F088818083942F31962296E21793
:10056000F307A1F7992341F04AE050E064E070E01E
:100570008CE891E00E941D0A44E050E060E070E0E9
:1005800084E391E00E94050ACFE1DEE42197F1F7D0
:1005900000C00000A4E3B1E0E0E0F1E060E271E05F
:1005A00010E001E07D018C9190E0AF012481358164
:1005B0002817390728F0228133818217930728F4FE
:1005C000EA018881E7018883102F11963896E61793
:1005D000F70741F7112371F044E050E060E070E06C
:1005E00084E391E00E941D0A8FE19EE40197F1F7F8
:1005F00000C00000DF91CF911F910F91FF90EF900D
:100600000895F89490E0FC013197E132F10598F5F6
:10061000EC5CFF4F0C94F00960913B0188E190E0A5
:100620000E94270A28C060913A018AE190E00E9466
:10063000270A21C06091390189E190E00E94270AD0
:100640001AC04AE050E06EE070E080E791E00E945E
:100650001D0A11C04AE050E064E070E08CE891E0CF
:100660000E941D0A08C044E050E060E070E084E3AE
:1006700091E00E941D0A78948FE19EE40197F1F7C2
:1006800000C000000895FC011082A281B3819C91FA
:1006900084818923A1F485819181891740F0878124
:1006A000882311F081E08087178281E003C08F5F8B
:1006B000858380E091819F3F31F4158204C01582CB
:1006C00081E0878380E09681911180E008950F9307
:1006D0001F93CF93DF938C01DC014D915C911197B7
:1006E0001D968C911D9790E04817590730F056964B
:1006F0008C9190E08417950728F4E801188E1F8AE2
:100700001B8E58C081E0F801838FD80124E030E0CF
:10071000BD011D968C911D9790E084179507C8F434
:100720001E968C911E9790E08417950790F0129674
:100730008C911297E8019C85891718F0388F2F8BC0
:1007400003C08F5FED018A839F3F29F4EB011A827A
:1007500002C0EB011A822150310911962F3FDFEFC1
:100760003D07B1F6D8014D915C9124E030E0DF0106
:10077000868990E048175907A0F4858990E04817CA
:10078000590778F08385E8019C85891718F03A8F1E
:10079000298F02C08F5F83879F3F29F41B961C928D
:1007A00002C01B961C922150310931972F3FDFEF79
:1007B0003D07E9F6DF91CF911F910F910895FC015C
:1007C00090818281891750F483819181891718F073
:1007D00081E0848304C08F5F838301C0138284819E
:1007E00008951F920F920FB60F921124CF92DF92AD
:1007F000EF92FF920F931F932F933F934F935F932B
:100800006F937F938F939F93AF93BF93CF93DF9318
:10081000EF93FF938091F001882339F0E9EEF1E046
:10082000838194810196948383838091EC019091DC
:10083000ED01019621F41092ED011092EC018091EE
:10084000DE01882339F0E7EDF1E0838194810196A0
:10085000948383838091DA019091DB01019621F4E6
:100860001092DB011092DA0180914E018F5F80932C
:100870004E0199E8899F912D112492959F70B82F70
:10088000AEE19A9FB0191124B11107C0882371F00D
:100890001092D20191E09093D101843638F081E03A
:1008A0008093D2011092D10110924E0188EC91E018
:1008B0000E9443038093C8018FEB91E00E944303A1
:1008C0008093BF0186EB91E00E9443030F2EF6EB6D
:1008D000CF2EF1E0DF2EF02DF60180838DEA91E03E
:1008E0000E9443030F2EFDEAEF2EF1E0FF2EF02DC4
:1008F000D7018C9384EA91E00E94430304EA11E05B
:10090000F80180838BE991E00E944303CBE9D1E0B9
:100910008883809144019091450190938001809358
:100920007F018FE791E00E946703809146019091DB
:100930004701909364018093630183E691E00E94F4
:1009400067038091420180935E018EE591E00E94F1
:10095000DF03809140018093590189E591E00E9475
:10096000DF0380913E018093540184E591E00E9471
:10097000DF0380913C0180934F018FE491E00E945E
:10098000DF03E9EEF1E0D6018C918183D7018C91F0
:100990008083E7EDF1E0D8018C91818388818083A9
:1009A000809138019FEF980F993018F48F5F8093F2
:1009B00038018BE396EF9093850080938400FF913C
:1009C000EF91DF91CF91BF91AF919F918F917F91E7
:1009D0006F915F914F913F912F911F910F91FF90D8
:1009E000EF90DF90CF900F900FBE0F901F90189553
:1009F000E8ECF1E0108216821086158225E0218352
:100A000083E290E09383828331E03483EFEBF1E083
:100A1000108210861682158221839383828382E05E
:100A20008483E6EBF1E010821582818329E230E0D5
:100A30003383228390E19483EDEAF1E01082158202
:100A400081833383228390E29483E4EAF1E010828D
:100A5000158281833383228390E49483EBE9F1E070
:100A60001082158281833383228380E884830895F2
:100A7000EEE5F1E014821082A4E3B1E011969C91BE
:100A80001197918313828C91282F220F220F820FAE
:100A90008283E9E5F1E014821082918313828283DC
:100AA000E4E5F1E01482108213969C9113979183F0
:100AB000138212968C91282F220F220F820F82838D
:100AC000EFE4F1E01482108291831382828308950F
:100AD0001F920F920FB60F9211242F933F936F9393
:100AE0007F938F939F93AF93BF93EF93FF93F8946C
:100AF000ECE7F0E080819081907F90838F7082306E
:100B000009F440C028F4882369F0813019F171C0DC
:100B1000863009F453C0873009F45EC0833009F091
:100B200068C03EC02091780030917900ADECBCECFB
:100B30000E94F6099695879596958795969587953F
:100B40009093470180934601ECE7F0E0808181605B
:100B5000808356C02091780030917900ADECBCECD8
:100B60000E94F6099695879596958795969587950F
:100B70009093450180934401ECE7F0E0808182602E
:100B800080833EC0809178009091790090934301DA
:100B900080934201ECE7F0E080818360808330C085
:100BA0008091780090917900909341018093400169
:100BB000ECE7F0E080818660808322C0809178003D
:100BC0009091790090933F0180933E01ECE7F0E033
:100BD00080818760808314C0809178009091790033
:100BE00090933D0180933C01ECE7F0E080818083AD
:100BF00007C0ECE7F0E08081807F80838081808384
:100C00007894EAE7F0E0808180648083FF91EF913F
:100C1000BF91AF919F918F917F916F913F912F9154
:100C20000F900FBE0F901F901895E3E6F1E082E061
:100C30008487108E178A128E118E138EEFE7F1E0E3
:100C40008487108E178A128E118E138EEAE7F0E0D9
:100C500080818D68808380E480937C0080818064C3
:100C6000808308951F93CF93DF93E9EEF1E0CBE209
:100C7000D0E0D587C48781E0868785E290E0908BBD
:100C8000878714E0118BCF010E94B600E7EDF1E0F9
:100C9000D587C4871687D08BC78788E0818BCF0123
:100CA0000E94B600DF91CF911F910895CF93DF93FB
:100CB00000D0CDB7DEB78DE08AB984E084B9E0E634
:100CC000F0E08081886180838EE0808310928000D4
:100CD00083E0809381008BE396EF9093850080936F
:100CE000840081E086BB80936F0078940E94F501B8
:100CF0000E94F8040E9432060E9438050E941506E0
:100D00000E9435090F2EFEE5EF2EF1E0FF2EF02DAB
:100D10000F2EF8EC6F2EF1E07F2EF02D0F2EF9E55F
:100D20008F2EF1E09F2EF02D0F2EF7ED2F2EF1E0FC
:100D30003F2EF02D0F2EF4E54F2EF1E05F2EF02D1B
:100D400029823A820FE411E00F2EF6EBCF2EF1E06C
:100D5000DF2EF02D0F2EFDEAAF2EF1E0BF2EF02D8D
:100D6000A895D70114968C91811155C0F401848106
:100D7000811151C0D3018C91882339F0E9EEF1E063
:100D800081E0828384E085832DC08091EB018823FC
:100D900069F0E9EEF1E015828681811123C080912E
:100DA000F20181111FC01092EB011CC080917E01E5
:100DB000882319F080917A0106C080919801909162
:100DC0009A01992379F081110BC09091EF01911153
:100DD00007C09091F201911103C09091F10191111E
:100DE0008093EE01F3018085882321F01092F401B5
:100DF00010860CC08091F401882341F0D1011B962C
:100E00008C91882319F084E08093EE0189EE91E0C3
:100E10000E94FA0007C089EE91E00E94E80081E09C
:100E2000F3018683D20114968C9181115CC0F80184
:100E30008481811158C0AFEBB1E08C91882331F0EF
:100E400081E0F101828384E0858332C0D101129672
:100E50008C911297882381F015961C9215971696FF
:100E60008C911697811124C019968C911997811134
:100E70001FC012961C921CC080919A01882319F001
:100E80008091960106C080917C0190917E0199230A
:100E900079F081110AC0F1019681911106C0918506
:100EA000911103C09085992319F0D10115968C9367
:100EB0008091C701882329F0F10113861092C701A0
:100EC0000DC0D1011B968C911B97882339F080911E
:100ED000F401882319F084E015968C9389819A8116
:100EE0000E94FA0007C089819A810E94E80081E08F
:100EF0008093C501F3018781882359F08681882377
:100F000041F0D70114961C92F4011482D301169675
:100F10001C928091C601882359F08091C5018823D5
:100F200039F0F2011482D80114961C921092C50176
:100F3000E9EEF1E061856093D40180858093D6016C
:100F4000F10191859093D30120852093D501D6019D
:100F5000EC913E2F330F330FD501EC91EE0FEE0FD6
:100F6000EE0FE32B462F482B4E2BE4EAF1E03081C5
:100F700050E1359FF0011124E42BABE9B1E03C9145
:100F8000B0E23B9FA00111244E2BF301308150E4CD
:100F9000359FF0011124E42BAFEBB1E03C91B0E8B8
:100FA0003B9FA00111244E2B392F322B330F432BA3
:100FB00040934D01880F880F660F660F660F862BD2
:100FC0008360E0E12E9F90011124482F422BF0E234
:100FD0009F9F90011124242BD70114964C91F4016A
:100FE0009481942BF0E49F9FA0011124422BD20105
:100FF00014962C91F8019481922BF0E89F9F900118
:101000001124242B20934C018091D201882309F4D0
:10101000A9C084E080930502809304020E944409E1
:101020001092D201809106028130E1F710923801CE
:10103000EBEFF1E0818180934A0192819093490125
:10104000838180934801482F50E0FA013197E132C3
:10105000F10508F085C0EB5AFF4F0C94F009809120
:101060003B01981709F47EC08DEF890F823608F096
:101070009BE090933B0181E00E94010373C080914B
:101080003A01981709F46EC08DEF890F823608F087
:101090009EE190933A0182E00E94010363C0809137
:1010A0003901981709F45EC0993C08F096E49093D2
:1010B000390183E00E94010355C0282F30E02A50F7
:1010C0003109F901ED59FE4F4585941709F44AC0DD
:1010D000F901ED59FE4F95870E94010343C0282F67
:1010E00030E024513109F901E158FE4F458594174C
:1010F000C9F1F901E158FE4F95870E94010332C002
:10110000282F30E02E513109F901EC5CFE4F40816F
:10111000941741F150E0F901EE0FFF1FEE0FFF1F92
:10112000EE0FFF1FE050FF4F648175816417750754
:1011300070F4F901EE0FFF1FEE0FFF1FEE0FFF1F00
:10114000E050FF4F628173814617570758F0F9014D
:10115000EC5CFE4F90830E9401030E94380502C0A0
:10116000109249018091D101882309F4F9CD81E0E1
:101170008093050283E08093040280914D01EBEFA0
:10118000F1E0808380914C01818320914A01822F7C
:1011900090E0FC013197E132F10508F05BC0EA58BC
:1011A000FF4F0C94F00980913B0180934B0154C098
:1011B00080913A0180934B014FC080913901809317
:1011C0004B014AC08091460180934B0145C0E9EE36
:1011D000F1E08581880F982F990F990F890F9681DB
:1011E000890F80934B0138C080917E0180934B0121
:1011F00033C08091440180934B012EC0D1011596DC
:101200008C911597880F982F990F990F890F169623
:101210009C91890F80934B011FC080919A0180930C
:101220004B011AC0E22FF0E0ED59FE4F838180930D
:101230004B0112C0E22FF0E0E858FE4F808180930E
:101240004B010AC0E22FF0E0EA5EFE4F80818093FE
:101250004B0102C010924B0180914B018093FD0124
:101260000E944D091092D1016DCD81E0809306025C
:1012700088E08093B8001092B9008FEF8093BB0094
:1012800084E08093BC0008951092060281E0809370
:10129000030285EA8093BC00089510920602109222
:1012A000030285EA8093BC0008951F920F920FB647
:1012B0000F9211242F933F938F939F93EF93FF935C
:1012C0008091B900883229F148F4803109F446C090
:1012D0008831B9F0883009F072C00AC0803509F44D
:1012E00044C0883509F45FC0803409F068C049C043
:1012F000109207028EEC8093BB0085E88093BC00BF
:1013000064C0809105028093BB0085E88093BC0097
:101310005CC080910302813021F485EA8093BC0097
:1013200054C09091070280910402981780F4E091D4
:10133000070281E08E0F80930702F0E0E550FE4F38
:1013400080818093BB0085E88093BC003EC084E927
:101350008093BC0081E08093060237C08FEC8093BD
:10136000BB0085E88093BC0030C0E091070281E0BB
:101370008E0F80930702F0E08091BB00E550FE4F96
:1013800080832091070230E08091040290E0019771
:101390002817390724F485EC8093BC0016C085E833
:1013A0008093BC0012C0E091070281E08E0F809311
:1013B0000702F0E08091BB00E550FE4F808384E996
:1013C0008093BC0081E080930602FF91EF919F9192
:1013D0008F913F912F910F900FBE0F901F901895F6
:1013E000EE0FFF1F0590F491E02D0994A29FB0012C
:1013F000B39FC001A39F700D811D1124911DB29F49
:10140000700D811D1124911D0895DC01CB01FC019B
:10141000F999FECF06C0F2BDE1BDF89A319600B44D
:101420000D9241505040B8F70895F999FECF92BD02
:1014300081BDF89A992780B50895DC01CB0103C0DE
:101440002D910E94280A41505040D0F70895262F30
:10145000F999FECF1FBA92BD81BD20BD0FB6F89499
:0E146000FA9AF99A0FBE01960895F894FFCFFC
:10146E0008000100320000000A00010063000200C3
:10147E0008000100320000000A00010063000200B3
:10148E000A001E00230028002D0038003D004200F7
:04149E0047005A00A9
:00000001FF
