S0100000646973705F6932632E7372656307
S11300004FC05EC05DC05CC0F7C05AC059C058C084
S113001057C056C055C054C053C052C051C050C040
S11300204FC077C04DC03AC13DC140C143C146C174
S113003049C14CC14FC152C155C158C159C15CC11C
S11300405FC162C165C168C169C16AC16DC170C166
S1130050E3C3EAC3FBC30DC41FC431C443C454C4C3
S113006065C476C487C486C485C484C483C482C476
S113007081C480C47FC47EC48EC48DC48CC48BC42C
S11300808AC489C488C487C486C485C495C4A6C4E4
S1130090B7C4C8C4D9C4D8C4E8C4E7C4E6C4E5C472
S11300A011241FBECFE5D4E0DEBFCDBF20E0A0E623
S11300B0B0E001C01D92AD38B207E1F7EED20CC535
S11300C09FCFFC01A581B6819C9187818923A9F4E6
S11300D080859381891710F091E092839481891728
S11300E020F0128281E0818302C08F5F8087838148
S11300F08F3F41F4108680E008958281128211823C
S11301001086089580E0089582B985EC86BF7894BE
S113011008951F920F920FB60F9211248F939F93FD
S1130120EF93FF9381B1887F803639F48FEF80930A
S1130130840086B7856C86BF56C081B1887F8038BD
S113014039F593B1809184008F3F59F4983018F4B5
S11301509093840002C01092840086B7856C86BF99
S113016042C080918400883078F4E0918400F0E00B
S1130170EB57FF4F9083809184008F5F80938400BE
S113018086B7856C86BF2FC086B7856886BF2BC0AF
S113019081B1887F883B21F593B1809184008F3FA2
S11301A039F4983018F49093840002C010928400BB
S11301B0E0918400F0E0EB57FF4F808183B9809198
S11301C084008F5F8093840080918400883020F4C1
S11301D086B7856C86BF07C086B7856886BF03C0AF
S11301E086B7856486BFFF91EF919F918F910F90A1
S11301F00FBE0F901F9018951F920F920FB60F927B
S113020011242F933F934F935F936F937F938F9317
S11302109F93AF93BF93EF93FF9389E690E051DFF1
S11302208093690080E690E04CDF809360008091C9
S113023072008C3030F48F5F809372008C3021F028
S113024009C01092720006C09091730081E0892762
S11302508093730014BCFF91EF91BF91AF919F9174
S11302608F917F916F915F914F913F912F910F905B
S11302700FBE0F901F90189592B38095982392BB50
S11302800895E82F8FEF82BB8E2F90E08531910582
S113029008F051C0FC01ED5EFF4F099482B3807AEF
S11302A082BB089582B38D7B82BB089582B384762A
S11302B082BB089582B38C7282BB089582B3897322
S11302C082BB089582B38A7282BB089582B382721C
S11302D082BB089582B38C7B82BB089582B3807203
S11302E082BB089582B3887282BB0895979808955B
S11302F082B3817A82BB089582B3857282BB0895EA
S113030082B3837E82BB089582B3857282BB0895D3
S113031082B3807B82BB0895949808959098089541
S113032082B38E7E82BB089582B3827E82BB08959F
S113033082B3827782BB089595B39F6095BB823068
S113034059F018F4813031F00895833039F0843055
S113035039F00895AB980895AA980895A998089536
S1130360A8980895E9E6F0E010821182108633E03F
S1130370338329E12483128286E390E09683858384
S113038041E04783E0E6F0E0108211821086338377
S1130390248312829683858382E087830895EF9273
S11303A0FF920F931F93CF93DF93182FEB01042F2A
S11303B0E22E81E0C1DF1A3020F4812F62DF9598AC
S11303C01AC08DEC189FF12C1124F694F694F6942F
S11303D08F2D57DF8FE097E20197F1F700C00000FF
S11303E082E0AADFFF0C8F2D880F880FF80E812F73
S11303F08F1947DF95988FE097E20197F1F700C0D6
S11304000000E0E8F0E09E01ADECBCEC59D3AC0197
S11304105695479556954795569547959A01220FB7
S1130420331FCA01880F991F880F991F880F991FBE
S1130430820F931F9E01281B390B22839A0140D3FC
S11304409695879596958795969587959C01220F05
S1130450331F880F991F880F991F880F991F820FC8
S1130460931F481B590B41839E013695279536955A
S11304702795ABE7B4E124D3AC01569547959A018F
S1130480ADECBCEC1DD3969587959695879596957E
S113049087959C01220F331F880F991F880F991F7E
S11304A0880F991F820F931F481B590B40834111DA
S11304B027C0C2E026C0CF5FDF5F8C2F3DDFEC2F6B
S11304C0F0E0E258FF4F8081DCDEC33059F431E0C4
S11304D0E31208C095988FE097E20197F1F700C006
S11304E00000E9CF959A8FE097E20197F1F700C0F9
S11304F00000D53000F307C0D2E0DC0FCF5FDDCFC2
S1130500C1E00111F9CFDF91CF911F910F91FF90BD
S1130510EF9008951F93CF93DF93182FD62FC42FF6
S113052066FD97C040FDA5C008C0959A8FE097E28C
S11305300197F1F700C0000036C081E0FDDE8FEFC7
S1130540A0DEC3FF03C085E09CDE08C0D2FF02C06A
S11305508BE097DED3FF02C08CE093DE959A8FE0A8
S113056097E20197F1F700C0000082E0E5DE8FEF2B
S113057088DE12FF02C080E184DE13FF02C081E145
S113058080DE812F8C708C3011F482E17ADEC2FF20
S113059002C080E871DED0FD95988FE097E2019764
S11305A0F1F700C00000DD2314F0C1FF1CC083E09C
S11305B0C3DE84E166DE959A8FE097E20197F1F756
S11305C000C0000084E0B8DECC231CF481E059DED6
S11305D002C082E056DE959A8FE097E20197F1F728
S11305E000C0000056C083E0A7DE8FEF4ADEC3FFE1
S11305F003C085E046DE08C0D4FF02C08BE041DEC4
S1130600D5FF02C08CE03DDE959A8FE097E201971A
S1130610F1F700C0000084E08FDE8FEF32DE14FFBC
S113062002C080E12EDE15FF02C081E12ADE1073D4
S1130630103311F482E125DEC2FF02C080E81CDE23
S1130640D1FD95988FE097E20197F1F700C0000083
S113065020C081E071DE84E114DE959A8FE097E298
S11306600197F1F700C0000082E066DE81E009DE58
S11306705CCF81E061DE84E104DE959A8FE097E24D
S11306800197F1F700C0000082E056DE82E0F9DD58
S11306904CCFDF91CF911F9108958FE084BB8FEFF2
S11306A081BB84E187BB87E085BD14BC80E488BF3F
S11306B089BF10927C008EEC27DD54DE7894C5E867
S11306C0D0E00F2EF9E6CF2EF0E0DF2EF02DFF2440
S11306D0F3940F2EF7E24F2EF02D00E610E00F2ECC
S11306E0F1E25F2EF02D6894662465F80F2EFFE189
S11306F07F2EF02D0F2EFEE18F2EF02D0F2EF9E020
S11307009F2EF02D6894AA24A3F80F2EF7E0BF2E95
S1130710F02D0F2EF6E0EF2EF02D898180937B00D3
S11307209A8190937A009B819093790090917400C0
S1130730911103C02C8120937800209177002D83A0
S1130740209176002E83209175002F83F60120815D
S1130750222309F4ACC120917F00211116C0F0922C
S11307607F00992341F020917800222371F02150D9
S1130770209378000AC020917C00222321F021508C
S113078020937C0002C040927C00F8012081222347
S113079009F490C120917E00211114C0F0927E00D2
S11307A0992331F0209178002F5F209378000AC0BC
S11307B020917C00273220F42F5F20937C0002C01C
S11307C010927C00F8012181222309F476C1209142
S11307D07D00211109C020917C00222329F0F09290
S11307E07D009F259093740080FF02C0C29A01C0CF
S11307F0C29880917B0081FF02C0C49A01C0C49852
S113080080917C00482F50E04832510508F03DC1EA
S1130810FA01E85DFF4F09944091790060917A00F4
S113082080917B0077DE31C1F09277008091740073
S1130830882321F0409173004F2501C04F2D609112
S1130840780070E02F2D8F2DAADD1FC182E08093E8
S1130850770080917400882321F0409173004F2524
S113086001C04F2D6091780070E02F2D82E097DD5C
S11308700CC183E08093770080917400882321F079
S1130880409173004F2501C04F2D6091780070E0B6
S11308902F2D83E084DDF9C084E08093770080917C
S11308A07400882321F0409173004F2501C04F2D1F
S11308B06091780070E020E084E071DDE6C085E0BE
S11308C08093770080917400882321F04091730015
S11308D04F2501C04F2D6091780070E02F2D85E0E9
S11308E05EDDD3C0E092770080917400882321F00C
S11308F0409173004F2501C04F2D6091780070E046
S113090020E08E2D4CDDC1C0B09277008091740040
S1130910882321F0409173004F2501C04F2D609131
S1130920780070E020E08B2D3ADDAFC0A092770014
S113093080917400882321F0409173004F2501C0F9
S11309404F2D6091780070E02F2D8A2D28DD9DC0F9
S11309509092770080917400882321F04091730075
S11309604F2501C04F2D6091780070E020E0892D63
S113097016DD8BC08093770090917400992321F049
S1130980409173004F2501C04F2D6091780070E0B5
S113099020E005DD7AC0809377009091740099235C
S11309A021F0409173004F2501C04F2D60917800D4
S11309B070E020E0F4DC69C08092770080917400DC
S11309C0882321F0409173004F2501C04F2D609181
S11309D0780070E020E0882DE2DC57C07092770048
S11309E080917400882321F0409173004F2501C049
S11309F04F2D6091780070E022E0872DD0DC45C057
S1130A006092770080917400882321F040917300F4
S1130A104F2501C04F2D6091780070E020E0862DB5
S1130A20BEDC33C05092770080917400882321F09B
S1130A30409173004F2501C04F2D6091780070E004
S1130A4022E0852DACDC21C0809377009091740066
S1130A50992321F0409173004F2501C04F2D6091DF
S1130A60780070E020E09BDC10C0809377009091C8
S1130A707400992321F0409173004F2501C04F2D3C
S1130A806091780070E020E08ADC80917400882313
S1130A9049F080917800809376008091770080936C
S1130AA075003BCE109276001092750036CE1092EF
S1130AB07F006BCE10927E0085CE10927D0094CE86
S1130AC0A29FB001B39FC001A39F01D0B29F700D3C
S10F0AD0811D1124911D0895F894FFCF9E
S9030000FC
