:1000000062C071C070C06FC00AC16DC06CC06BC0EF
:100010006AC069C068C067C066C065C064C063C0AC
:1000200062C08AC060C04DC150C153C156C159C1E0
:100030005CC15FC162C165C168C16BC16CC16FC188
:1000400072C175C178C17BC17CC17DC180C183C1D2
:1000500093C196C199C19CC19FC1A2C1A5C1A8C1AC
:10006000ABC1AEC1B1C1B4C1B7C1BAC1BDC1C0C1DC
:100070009EC4A5C4B6C4C8C4DAC4ECC4FEC410C5CA
:1000800021C532C543C542C541C540C53FC53EC572
:100090003DC53CC53BC53AC54AC549C548C547C528
:1000A00046C545C544C543C542C541C551C562C5E0
:1000B00073C584C595C594C5A4C5A3C5A2C5A1C56E
:1000C000B1C5C2C5C1C511241FBECFE5D4E0DEBF96
:1000D000CDBF20E0A0E6B0E001C01D92AD38B20770
:1000E000E1F7A6D3E7C58CCFFC01A581B6819C9131
:1000F00087818923A9F480859381891710F091E085
:1001000092839481891720F0128281E0818302C05A
:100110008F5F808783818F3F41F4108680E0089550
:100120008281128211821086089580E0089582B93A
:1001300085EC86BF789408951F920F920FB60F92A8
:1001400011248F939F93EF93FF9381B1887F803623
:1001500039F48FEF8093840086B7856C86BF56C0D4
:1001600081B1887F803839F593B1809184008F3FC9
:1001700059F4983018F49093840002C010928400CF
:1001800086B7856C86BF42C080918400883078F441
:10019000E0918400F0E0EB57FF4F90838091840062
:1001A0008F5F8093840086B7856C86BF2FC086B72B
:1001B000856886BF2BC081B1887F883B21F593B1CC
:1001C000809184008F3F39F4983018F49093840024
:1001D00002C010928400E0918400F0E0EB57FF4FE2
:1001E000808183B9809184008F5F809384008091A7
:1001F0008400883020F486B7856C86BF07C086B738
:10020000856886BF03C086B7856486BFFF91EF917E
:100210009F918F910F900FBE0F901F9018951F9276
:100220000F920FB60F9211242F933F934F935F932A
:100230006F937F938F939F93AF93BF93EF93FF93AE
:1002400089E690E051DF8093690080E690E04CDF22
:1002500080936000809172008C3030F48F5F8093C7
:1002600072008C3021F009C01092720006C090918B
:10027000730081E089278093730014BCFF91EF9194
:10028000BF91AF919F918F917F916F915F914F91AE
:100290003F912F910F900FBE0F901F90189592B322
:1002A0008095982392BB0895E82F8FEF82BB8E2F05
:1002B00090E08531910508F051C0FC01ED5EFF4FE3
:1002C000099482B3807A82BB089582B38D7B82BB0E
:1002D000089582B3847682BB089582B38C7282BB08
:1002E000089582B3897382BB089582B38A7282BBF8
:1002F000089582B3827282BB089582B38C7B82BBE5
:10030000089582B3807282BB089582B3887282BBE3
:1003100008959798089582B3817A82BB089582B335
:10032000857282BB089582B3837E82BB089582B3B7
:10033000857282BB089582B3807B82BB08959498B6
:1003400008959098089582B38E7E82BB089582B3FB
:10035000827E82BB089582B3827782BB0895E82FA4
:100360008FEF82BB8E2F90E08031910508F043C063
:10037000FC01E85DFF4F099482B3807A82BB089547
:1003800082B38D7B82BB089582B3847682BB08954D
:1003900082B38C7282BB089582B3897382BB089545
:1003A00082B38A7282BB089582B3827282BB08953F
:1003B00082B38C7B82BB089582B3807282BB089526
:1003C00082B3887282BB089582B3807382BB089522
:1003D00082B3837282BB089582B3827E82BB08950A
:1003E00082B3857282BB089582B3827682BB089500
:1003F00082B3827782BB089595B39F6095BB8230AC
:1004000059F018F4813031F00895833039F0843098
:1004100039F00895AB980895AA980895A998089579
:10042000A8980895E9E6F0E010821182108633E082
:10043000338329E12483128286E390E096838583C7
:1004400041E04783E0E6F0E01082118210863383BA
:10045000248312829683858382E087830895EF92B6
:10046000FF920F931F93CF93DF93182FEB01042F6D
:10047000E22E81E0C1DF1A3020F4812F15DF95983C
:100480001AC08DEC189FF12C1124F694F694F69472
:100490008F2D0ADF8FE097E20197F1F700C000008F
:1004A00082E0AADFFF0C8F2D880F880FF80E812FB6
:1004B0008F19FADE95988FE097E20197F1F700C067
:1004C0000000E0E8F0E09E01ADECBCECE7D3AC014D
:1004D0005695479556954795569547959A01220FFB
:1004E000331FCA01880F991F880F991F880F991F02
:1004F000820F931F9E01281B390B22839A01CED3B2
:100500009695879596958795969587959C01220F48
:10051000331F880F991F880F991F880F991F820F0B
:10052000931F481B590B41839E013695279536959D
:100530002795ABE7B4E1B2D3AC01569547959A0144
:10054000ADECBCECABD39695879596958795969533
:1005500087959C01220F331F880F991F880F991FC1
:10056000880F991F820F931F481B590B408341111D
:1005700027C0C2E026C0CF5FDF5F8C2F3DDFEC2FAE
:10058000F0E0E258FF4F80818FDEC33059F431E054
:10059000E31208C095988FE097E20197F1F700C049
:1005A0000000E9CF959A8FE097E20197F1F700C03C
:1005B0000000D53000F307C0D2E0DC0FCF5FDDCF05
:1005C000C1E00111F9CFDF91CF911F910F91FF9001
:1005D000EF900895FF920F931F93CF93DF93082F0F
:1005E000EB01F42E81E008DF0A3020F4802F5CDE7E
:1005F00095981AC01DEC019F112D11241695169582
:100600001695812F51DE8FE097E20197F1F700C038
:10061000000082E0F1DE110F812F880F880F180F84
:10062000802F811B41DE95988FE097E20197F1F7CB
:1006300000C00000E0E8F0E08C2F8F708283D2953C
:10064000C295CF70CD27DF70CD27CF70C183FF203B
:10065000C1F083E0D1DEC0E8D0E0898180DE959AE8
:100660008FE097E20197F1F700C0000084E0C4DE5C
:100670008A8175DE959A8FE097E20197F1F700C0C5
:100680000000DF91CF911F910F91FF9008951F936C
:10069000CF93DF93182FC62FD42F66FD85C040FD62
:1006A00093C008C0959A8FE097E20197F1F700C0D8
:1006B000000036C081E0A0DE8FEFF6DDD3FF03C07F
:1006C00085E0F2DD08C0C2FF02C08BE0EDDDC3FFB4
:1006D00002C08CE0E9DD959A8FE097E20197F1F78F
:1006E00000C0000082E088DE8FEFDEDD12FF02C076
:1006F00080E1DADD13FF02C081E1D6DD812F8C704D
:100700008C3011F482E1D0DDD2FF02C080E8C7DD79
:10071000C0FD95988FE097E20197F1F700C00000C7
:10072000CC230CF461C0D1FD6FC008C0959A8FE056
:1007300097E20197F1F700C0000076C083E05CDE2D
:100740008FEFB2DDD3FF03C085E0AEDD08C0C4FF8C
:1007500002C08BE0A9DDC5FF02C08CE0A5DD959A43
:100760008FE097E20197F1F700C0000084E044DEDB
:100770008FEF9ADD14FF02C080E196DD15FF02C005
:1007800081E192DD1073103311F482E18DDDD2FF2F
:1007900002C080E884DDC1FD95988FE097E2019763
:1007A000F1F700C0000040C081E026DE84E17CDD7E
:1007B000959A8FE097E20197F1F700C0000082E080
:1007C0001BDE81E071DD6ECF81E016DE84E16CDD41
:1007D000959A8FE097E20197F1F700C0000082E060
:1007E0000BDE82E061DD5ECF83E006DE84E15CDD6E
:1007F000959A8FE097E20197F1F700C0000084E03E
:10080000FBDD81E051DD92CF83E0F6DD84E14CDD5C
:10081000959A8FE097E20197F1F700C0000084E01D
:10082000EBDD82E041DD82CFDF91CF911F91089512
:100830008FE084BB8FEF81BB84E187BB87E085BD00
:1008400014BC80E488BF89BF10927C008EEC6FDC02
:10085000E9DD7894C5E8D0E00F2EF9E6CF2EF0E080
:10086000DF2EF02DFF24F3940F2EFAE24F2EF02D01
:1008700000E610E00F2EF8E25F2EF02D0F2EF1E2D1
:100880006F2EF02D6894772475F80F2EFFE18F2ED0
:10089000F02D0F2EFEE19F2EF02D0F2EF9E0AF2E42
:1008A000F02D6894BB24B3F80F2EF7E0EF2EF02D57
:1008B000898180937B009A8190937A009B819093A9
:1008C000790090917400911103C02C8120937800DD
:1008D000209177002D83209176002E832091750042
:1008E0002F83F6012081222309F4CFC120917F00BC
:1008F000211116C0F0927F00992341F020917800D9
:10090000222371F02150209378000AC020917C00AE
:10091000222321F0215020937C0002C040927C00D1
:10092000F8012081222309F4B3C120917E00211116
:1009300014C0F0927E00992331F0209178002F5F4F
:10094000209378000AC020917C002A3220F42F5F87
:1009500020937C0002C010927C00F80121812223A8
:1009600009F499C120917D00211109C020917C00DA
:10097000222329F0F0927D009F259093740080FF40
:1009800002C0C29A01C0C29880917B0081FF02C060
:10099000C49A01C0C49880917C00482F50E04B322B
:1009A000510508F060C1FA01E85CFF4F09944091DD
:1009B000790060917A0080917B0069DE54C1F092E9
:1009C000770080917400882321F0409173004F25B7
:1009D00001C04F2D6091780070E02F2D8F2D3FDDED
:1009E00042C182E08093770080917400882321F0D7
:1009F000409173004F2501C04F2D6091780070E049
:100A00002F2D82E02CDD2FC183E080937700809131
:100A10007400882321F0409173004F2501C04F2DB1
:100A20006091780070E02F2D83E019DD1CC184E017
:100A30008093770080917400882321F040917300A7
:100A40004F2501C04F2D6091780070E020E084E0D8
:100A500006DD09C185E080937700809174008823CA
:100A600021F0409173004F2501C04F2D6091780017
:100A700070E02F2D85E0F3DCF6C086E080937700F0
:100A800080917400882321F0409173004F2501C0AC
:100A90004F2D6091780070E020E086E0E0DCE3C05C
:100AA000E092770080917400882321F040917300D8
:100AB0004F2501C04F2D6091780070E020E08E2D11
:100AC000CEDCD1C0B092770080917400882321F0F1
:100AD000409173004F2501C04F2D6091780070E068
:100AE0002F2D8B2DBCDCBFC0A092770080917400AD
:100AF000882321F0409173004F2501C04F2D609154
:100B0000780070E020E08A2DAADCADC080937700E9
:100B100090917400992321F0409173004F2501C0FA
:100B20004F2D6091780070E020E099DC9CC08093AC
:100B3000770090917400992321F0409173004F2524
:100B400001C04F2D6091780070E020E088DC8BC000
:100B50009092770080917400882321F04091730077
:100B60004F2501C04F2D6091780070E020E0892D65
:100B700076DC79C08092770080917400882321F020
:100B8000409173004F2501C04F2D6091780070E0B7
:100B900022E0882D64DC67C0709277008091740039
:100BA000882321F0409173004F2501C04F2D6091A3
:100BB000780070E020E0872D52DC55C0609277000D
:100BC00080917400882321F0409173004F2501C06B
:100BD0004F2D6091780070E022E0862D40DC43C00C
:100BE0008093770090917400992321F040917300D5
:100BF0004F2501C04F2D6091780070E020E02FDC80
:100C000032C08093770090917400992321F0409135
:100C100073004F2501C04F2D6091780070E020E0F7
:100C20001EDC21C05092770080917400882321F04F
:100C3000409173004F2501C04F2D6091780070E006
:100C400020E0852D0CDC0FC080937700909174001C
:100C5000992321F0409173004F2501C04F2D6091E1
:100C6000780070E0B7DC80917400882349F08091AF
:100C7000780080937600809177008093750018CE7D
:100C8000109276001092750013CE10927F0048CE1D
:100C900010927E0062CE10927D0071CEA29FB001B4
:100CA000B39FC001A39F01D0B29F700D811D11247D
:080CB000911D0895F894FFCF97
:00000001FF
