:1000000048C057C056C055C0F0C053C052C051C0C0
:1000100050C04FC04EC04DC04CC04BC04AC049C07C
:1000200048C070C046C02EC131C134C137C13AC1C9
:100030003DC140C143C146C149C14CC14DC150C180
:1000400053C156C159C15CC15DC15EC161C1A0C38C
:10005000A5C3B6C3C8C3DAC3ECC3FDC30EC41FC473
:1000600030C441C440C43FC43EC43DC43CC43BC48E
:100070003AC439C438C448C447C446C445C444C457
:1000800043C442C441C440C43FC44FC460C471C4EB
:1000900082C411241FBECFE5D4E0DEBFCDBF20E077
:1000A000A0E6B0E001C01D92A938B207E1F7B4D2D2
:1000B000AAC4A6CFFC01A581B6819C918781892322
:1000C000A9F480859381891710F091E0928394813F
:1000D000891720F0128281E0818302C08F5F8087C0
:1000E00083818F3F41F4108680E0089582811282DF
:1000F00011821086089580E0089582B985EC86BF4C
:10010000789408951F920F920FB60F9211248F9337
:100110009F93EF93FF9381B1887F803639F48FEFFF
:100120008093830086B7856C86BF56C081B1887F77
:10013000803839F593B1809183008F3F59F4953021
:1001400018F49093830002C01092830086B7856CE8
:1001500086BF42C080918300853078F4E0918300AF
:10016000F0E0EC57FF4F9083809183008F5F809386
:10017000830086B7856C86BF2FC086B7856886BF2B
:100180002BC081B1887F883B21F593B1809183009A
:100190008F3F39F4953018F49093830002C0109289
:1001A0008300E0918300F0E0EC57FF4F808183B93A
:1001B000809183008F5F80938300809183008530DE
:1001C00020F486B7856C86BF07C086B7856886BF72
:1001D00003C086B7856486BFFF91EF919F918F9191
:1001E0000F900FBE0F901F9018951F920F920FB691
:1001F0000F9211242F933F934F935F936F937F93AD
:100200008F939F93AF93BF93EF93FF9389E690E013
:1002100051DF8093690080E690E04CDF80936000BE
:10022000809172008C3030F48F5F809372008C303C
:1002300021F009C01092720006C09091730081E015
:1002400089278093730014BCFF91EF91BF91AF9108
:100250009F918F917F916F915F914F913F912F91DE
:100260000F900FBE0F901F901895E82F8FEF82BB55
:100270008E2F90E08431910508F04DC0FC01ED5EB9
:10028000FF4F099482B3807A82BB089582B38D7B3D
:1002900082BB089582B3847682BB089582B38C7248
:1002A00082BB089582B3897382BB089582B38A7238
:1002B00082BB089582B3827282BB089582B38C7B25
:1002C00082BB089582B3807282BB089582B3887224
:1002D00082BB08959798089582B3817A82BB08956E
:1002E00082B3857282BB089582B3837E82BB0895F8
:1002F00082B3857282BB089582B3807B82BB0895EE
:10030000949808959098089582B38E7E82BB089544
:1003100082B3827E82BB089595B39F6095BB823085
:1003200059F018F4813031F00895833039F0843079
:1003300039F00895AB980895AA980895A99808955A
:10034000A8980895E9E6F0E010821182108633E063
:10035000338329E12483128286E390E096838583A8
:1003600041E04783E0E6F0E010821182108633839B
:10037000248312829683858382E087830895EF9297
:10038000FF920F931F93CF93DF93182FEB01042F4E
:10039000E22E81E0C1DF1A3020F4812F66DF9598CC
:1003A0001AC08DEC189FF12C1124F694F694F69453
:1003B0008F2D5BDF8FE097E20197F1F700C000001F
:1003C00082E0AADFFF0C8F2D880F880FF80E812F97
:1003D0008F194BDF95988FE097E20197F1F700C0F6
:1003E0000000EFE7F0E09E01ADECBCEC00D3AC0107
:1003F0005695479556954795569547959A01220FDC
:10040000331FCA01880F991F880F991F880F991FE2
:10041000820F931F9E01281B390B22839A01E7D27A
:100420009695879596958795969587959C01220F29
:10043000331F880F991F880F991F880F991F820FEC
:10044000931F481B590B41839E013695279536957E
:100450002795ABE7B4E1CBD2AC01569547959A010D
:10046000ADECBCECC4D296958795969587959695FC
:1004700087959C01220F331F880F991F880F991FA2
:10048000880F991F820F931F481B590B40834111FE
:1004900027C0C2E026C0CF5FDF5F8C2F3DDFEC2F8F
:1004A000F0E0E358FF4F8081E0DEC33059F431E0E3
:1004B000E31208C095988FE097E20197F1F700C02A
:1004C0000000E9CF959A8FE097E20197F1F700C01D
:1004D0000000D53000F307C0D2E0DC0FCF5FDDCFE6
:1004E000C1E00111F9CFDF91CF911F910F91FF90E2
:1004F000EF900895CF93DF93D82FC62F66FF17C0D4
:1005000081E00ADF80E0B1DE959A8FE097E2019703
:10051000F1F700C0000082E0FFDE83E1A6DE959ADD
:100520008FE097E20197F1F700C000002DC081E055
:10053000F3DE8FEF9ADEC2FF02C08BE096DEC3FFD0
:1005400002C08CE092DE959A8FE097E20197F1F776
:1005500000C0000082E0E0DE8FEF87DED2FF02C045
:1005600080E183DED3FF02C081E17FDE8D2F8C70BE
:100570008C3011F482E179DEC0FD95988FE097E22E
:100580000197F1F700C00000CC23BCF483E0C4DE87
:1005900080E06BDE959A8FE097E20197F1F700C05B
:1005A000000084E0B9DE83E160DE959A8FE097E297
:1005B0000197F1F700C000002CC083E0ADDE8FEFA3
:1005C00054DEC4FF02C08BE050DEC5FF02C08CE0E9
:1005D0004CDE959A8FE097E20197F1F700C000009A
:1005E00084E09ADE8FEF41DED4FF02C080E13DDE81
:1005F000D5FF02C081E139DED073D03311F482E13E
:1006000034DEC1FD95988FE097E20197F1F700C0C5
:100610000000DF91CF9108958FE084BB8FEF81BB05
:1006200084E187BB87E085BD14BC80E488BF89BFB7
:1006300010927B008EEC61DD85DE7894C4E8D0E01A
:100640000F2EF9E6CF2EF0E0DF2EF02D11E001E2C3
:100650000F2EF0E6EF2EF0E0FF2EF02D68944424EC
:1006600045F80F2EFFE15F2EF02D0F2EFEE16F2ECD
:10067000F02D0F2EF9E07F2EF02D6894882483F85A
:100680000F2EF7E09F2EF02D0F2EF6E0AF2EF02D5F
:100690000F2EF5E0BF2EF02D898180937A009A818C
:1006A0009093790090917400911103C02B81209355
:1006B0007800209177002C83209176002D83209163
:1006C00075002E83F6012081222309F487C1209131
:1006D0007E00211116C010937E00992341F02091D5
:1006E0007800222371F02150209378000AC02091D5
:1006F0007B00222321F0215020937B0002C0009335
:100700007B00F7012081222309F46BC120917D0039
:10071000211114C010937D00992331F020917800AD
:100720002F5F209378000AC020917B00213220F4B3
:100730002F5F20937B0002C010927B00F701218184
:10074000222309F451C120917C00211109C020917C
:100750007B00222329F010937C0091279093740052
:1007600080FF02C0C29A01C0C29880917A0081FFC6
:1007700002C0C49A01C0C49880917B00482F50E009
:100780004232510508F018C1FA01E95DFF4F0994A2
:100790006091790080917A00ADDE0EC110937700F0
:1007A00080917400882321F040917300412701C09B
:1007B000412F6091780070E0212F812FE0DDFCC097
:1007C00082E08093770080917400882321F040912B
:1007D0007300412701C0412F6091780070E0212F04
:1007E00082E0CDDDE9C083E08093770080917400E2
:1007F000882321F040917300412701C0412F60916F
:10080000780070E0212F83E0BADDD6C084E08093C9
:10081000770080917400882321F040917300412774
:1008200001C0412F6091780070E020E084E0A7DDF6
:10083000C3C0B092770080917400882321F040916A
:100840007300412701C0412F6091780070E0212F93
:100850008B2D95DDB1C0A092770080917400882324
:1008600021F040917300412701C0412F6091780031
:1008700070E020E08A2D83DD9FC090927700809108
:100880007400882321F040917300412701C0412F5B
:100890006091780070E020E0892D71DD8DC080923C
:1008A000770080917400882321F0409173004127E4
:1008B00001C0412F6091780070E0212F882D5FDD0D
:1008C0007BC07092770080917400882321F0409162
:1008D0007300412701C0412F6091780070E020E053
:1008E000872D4DDD69C08093770090917400992326
:1008F00021F040917300412701C0412F60917800A1
:1009000070E020E03CDD58C0809377009091740047
:10091000992321F040917300412701C0412F60913C
:10092000780070E020E02BDD47C060927700809176
:100930007400882321F040917300412701C0412FAA
:100940006091780070E020E0862D19DD35C050926E
:10095000770080917400882321F040917300412733
:1009600001C0412F6091780070E022E0852D07DD05
:1009700023C04092770080917400882321F0409139
:100980007300412701C0412F6091780070E020E0A2
:10099000842DF5DC11C000937700809174008823CA
:1009A00021F040917300412701C0412F60917800F0
:1009B00070E022E0802FE3DC80917400882349F00E
:1009C0008091780080937600809177008093750005
:1009D00063CE10927600109275005ECE10927E006B
:1009E00090CE10927D00AACE10927C00B9CEA29F2C
:1009F000B001B39FC001A39F01D0B29F700D811DB4
:0A0A00001124911D0895F894FFCF12
:00000001FF
