:100000000C94BC000C94D9000C94D9000C94D90029
:100010000C94D9000C94D9000C94D9000C94D900FC
:100020000C94D9000C94D9000C94D9000C94D900EC
:100030000C94D9000C94D9000C94D9000C94F805B8
:100040000C94D9000C94D9000C94C3050C94FB0EAD
:100050000C94D9000C94D9000C94D9000C94D900BC
:100060000C94DA070C94D9000C947D0F0C94D900F1
:100070000C94D9000C94D9000C94D900BB04C20490
:10008000C904030503050305030503050305D0049F
:10009000D004D004D004D004D004D004D004D004C0
:1000A000D004D904D904D904D904D904D904D90471
:1000B000D904D904D904E204E204E204E204E2042B
:1000C000E204EB04EB04EB04EB04F404FB04FB0498
:1000D000FC0B0C0C1C0CD20CD20CD20CD20CD20C83
:1000E000D20C2A0C2A0C2A0C2A0C2A0C2A0C2A0CB8
:1000F0002A0C2A0C2A0C410C410C410C410C410CDD
:10010000410C410C410C410C410C580C580C580C42
:10011000580C580C580C7D0C7D0C7D0C7D0CA00CE3
:10012000B10CB10C160D1B0D200D250D2A0D360D31
:100130003B0D400D4D0D520D520D520D520D520DF5
:10014000520D520D520D520D520D5A0D5A0D5A0D9F
:100150005A0D5A0D5A0D5A0D5A0D5A0D5A0D620D5F
:10016000620D620D620D620D620D6A0D6A0D6A0DFF
:100170006A0D720D770D770D11241FBECFEFD8E0F9
:10018000DEBFCDBF11E0A0E0B1E0E4E4F4E202C0E4
:1001900005900D92AE33B107D9F722E0AEE3B1E09E
:1001A00001C01D92A93FB207E1F70E945C090C94BF
:1001B00020120C940000FC01128E138E108A1786F8
:1001C000118A128A138A148A168A10821282118264
:1001D00014861386178A108E158A14821682178247
:1001E0001086118612861382168615860895FC01E4
:1001F000A48DB58D9C91868D809589238C93A78D38
:10020000B0A19C9181A1809589238C930895FC01D4
:100210008381811105C096818285891798F004C079
:1002200096818085891770F0A48DB58D9C91868DFF
:10023000892B8C93A78DB0A19C9181A18095892356
:100240008C930895CF010E94F7000895FC01A48DBE
:10025000B58D9C91868D809589238C93A78DB0A1B7
:100260009C9181A1892B8C9381E0878B108E0895BE
:10027000CF93DF93EC010E94F7001F8A188EDF9165
:10028000CF910895FC0181858823C1F091E0978B7F
:10029000108E9781981770F4A48DB58D9C91868DE2
:1002A000809589238C93A78DB0A19C9181A1892BE6
:1002B0008C930895CF010E94F7000895CF010E940A
:1002C000380108954F925F926F927F928F929F9222
:1002D000AF92BF92CF92DF92EF92FF920F931F9354
:1002E000CF93DF93EC010D858E85801720F09F89D9
:1002F000911170C1BDC010E0081B11098F898823BE
:1003000029F00115110511F401E010E0898D81112A
:1003100012C0CE010E9438018FE39FE10197F1F7EF
:1003200000C0000081E08D8B8F8B188E1C861B8691
:100330008A8181111E8681E0898F8A80882019F048
:100340002AE030E002C02CE030E08C81882311F0FC
:100350002CE030E070904C01729E5001739EB00C06
:10036000112490904E01929EC001939E900D1124F5
:100370009695879596958795809F6001819FD00C73
:10038000909FD00C1124EB84FC848F859889E8160B
:10039000F90681F020E030E040E85FE369897A897E
:1003A0008B899C890E941910698B7A8B8B8B9C8B13
:1003B000F88AEF86B50180E090E00E94FC109B0176
:1003C000AC0169897A898B899C890E94AE11882346
:1003D0002CF091E0791418F490E001C090E09E8B2D
:1003E000CE14DF0488F08E85843008F003C12881A4
:1003F0002111F4C09111F2C0CE010E94260181E0CA
:100400008D8B1F821D8234C08D89882329F08E85B3
:10041000843028F4080F0E878E85843010F0811008
:1004200003C01D8A1C861B869D81911110C08430DB
:10043000E1F489858823C9F0CE010E94F7008FE39B
:100440009FE10197F1F700C0000081E08D83888172
:1004500081110BC08E85843041F48985882329F071
:100460001D8ACE010E94420103C0CE010E943801C4
:100470008D850E85801720F0988D9111B3C0A1C095
:1004800010E0081B1109888D882329F0011511053A
:1004900011F401E010E0898D882379F0CE010E94EB
:1004A00038018FE39FE10197F1F700C0000081E080
:1004B0008D8B888F1F8A1C861B86198E8B818823C3
:1004C00041F0688570E084E690E00E94B3116B0112
:1004D00005C00F2EFAE0CF2ED12CF02DBD84B11027
:1004E00008C080914D018C9D40018D9D900C112480
:1004F00012C020914E012C9DC0012D9D900D112404
:100500009695879596958795809F4001819F900C41
:10051000909F900C1124EB84FC848F859889E816B9
:10052000F906A9F149885A886B887C8820E030E078
:10053000A901C301B2010E94AE111816BCF4B601A4
:1005400080E090E00E94FC109B01AC0160E070E054
:1005500080E291E40E948A109B01AC01C301B201C8
:100560000E941810698B7A8B8B8B9C8B20E030E07B
:10057000A90169897A898B899C890E9485108823C1
:1005800024F4198A1A8A1B8A1C8AF88AEF868E1428
:100590009F0448F08981811106C0CE010E940701A5
:1005A00081E08D8B0EC08D89882329F0BB20F1F06E
:1005B0008E85801B8E871D8A1C861B86CE010E941D
:1005C00038018981882321F0198A1A8A1B8A1C8A9A
:1005D0008E8516C010E0081B110993CE9D899923C2
:1005E00069F018CF10E0081B110950CF1E86E3CF29
:1005F0008E8515CF8D898111FBCF0ECF8E8511CFC2
:10060000DF91CF911F910F91FF90EF90DF90CF90EE
:10061000BF90AF909F908F907F906F905F904F9022
:1006200008950F931F93CF93DF9381E290E00E9490
:10063000001280934E018FEC97E00197F1F700C014
:10064000000080914E019DEF980F923680F0893026
:1006500071F089E080934E0169E081E290E00E94B0
:100660001212CFECD7E02197F1F700C0000083E22F
:1006700090E00E94001280934D018FEC97E001976B
:10068000F1F700C0000080914D019DEF980F923668
:1006900080F0843171F084E180934D0164E183E264
:1006A00090E00E941212CFECD7E02197F1F700C042
:1006B000000082E290E00E94001280934C018FECD7
:1006C00097E00197F1F700C0000080914C0185365A
:1006D00080F08A3071F08AE080934C016AE082E217
:1006E00090E00E941212CFECD7E02197F1F700C002
:1006F00000004AE050E067E170E088E991E00E9484
:10070000F0118FEC97E00197F1F700C00000E8E9E5
:10071000F1E0C4E3D1E022EA31E0DE0190E041E023
:1007200080818150833618F08C918083942F31968C
:100730001196E217F307A1F7992371F04AE050E010
:1007400067E170E088E991E00E9408128FEC97E081
:100750000197F1F700C000004AE050E06DE070E062
:1007600084EB91E00E94F0118FEC97E00197F1F794
:1007700000C00000E4EBF1E02EEB31E090E041E05E
:1007800080818150833618F088818083942F319640
:100790002196E217F307A1F7992341F04AE050E0D0
:1007A0006DE070E084EB91E00E94081246E050E0BA
:1007B00067E070E085E491E00E94F011CFECD7E0B3
:1007C0002197F1F700C00000A5E4B1E0ECE1F1E011
:1007D00044E351E060E071E08D018C919F019281D2
:1007E000981718F09181891728F4E9018881E801A8
:1007F0008883672F11963496E417F50769F7662307
:1008000071F046E050E067E070E085E491E00E941E
:1008100008128FEC97E00197F1F700C0000044E068
:1008200050E063E070E081E491E00E94F011CFECD1
:10083000D7E02197F1F700C00000A1E4B1E0ECE0BF
:10084000F1E04CE151E060E071E08D018C919F019D
:100850009281981718F09181891728F4E90188810D
:10086000E8018883672F119634964E175F0769F762
:10087000662371F044E050E063E070E081E491E0D1
:100880000E9408128FEC97E00197F1F700C000007A
:1008900082E090E00E94001280934001CFECD7E00C
:1008A0002197F1F700C000008091400190910A016A
:1008B000981720F090910901891770F46091080150
:1008C0006093400182E090E00E9412128FEC97E06A
:1008D0000197F1F700C0000042E050E060E070E0F6
:1008E0008EE391E00E94F011CFECD7E02197F1F771
:1008F00000C0000080913E0190910201981730F4F1
:100900008091000180933E0121E005C0909101019A
:100910008917B0F320E080913F019091060198176C
:1009200020F090910501891728F4809104018093AB
:100930003F0102C0222371F042E050E060E070E02D
:100940008EE391E00E9408128FEC97E00197F1F797
:1009500000C00000DF91CF911F910F910895F8948E
:1009600090E0FC013197EA32F10508F04CC0E25CFE
:10097000FF4F0C94C71160914E0181E290E00E94FC
:10098000121241C060914D0183E290E00E94121268
:100990003AC060914C0182E290E00E94121233C092
:1009A0004AE050E067E170E088E991E00E940812B7
:1009B0002AC04AE050E06DE070E084EB91E00E94D4
:1009C000081221C046E050E067E070E085E491E065
:1009D0000E94081218C044E050E063E070E081E437
:1009E00091E00E9408120FC06091400182E090E007
:1009F0000E94121208C042E050E060E070E08EE316
:100A000091E00E94081278948FEC97E00197F1F73B
:100A100000C000000895FC011082A281B3819C9166
:100A200084818923A9F485819181891748F0878180
:100A3000882319F081E080878287178281E003C0D4
:100A40008F5F858380E091819F3F59F4158209C0B3
:100A50008781811102C081E08187158281E08783CF
:100A600080E09681911180E008950F931F93CF93BA
:100A7000DF938C01DC014D915C9111971D968C9157
:100A80001D9790E04817590730F056968C9190E0EA
:100A90008417950728F4E801188E1F8A1B8E58C00A
:100AA00081E0F801838FD80124E030E0BD011D967C
:100AB0008C911D9790E084179507C8F41E968C9131
:100AC0001E9790E08417950790F012968C911297DC
:100AD000E8019C85891718F0388F2F8B03C08F5F32
:100AE000ED018A839F3F29F4EB011A8202C0EB01DA
:100AF0001A822150310911962F3FDFEF3D07B1F6E1
:100B0000D8014D915C9124E030E0DF01868990E0CE
:100B100048175907A0F4858990E04817590778F0DD
:100B20008385E8019C85891718F03A8F298F02C0C8
:100B30008F5F83879F3F29F41B961C9202C01B96F0
:100B40001C922150310931972F3FDFEF3D07E9F625
:100B5000DF91CF911F910F910895FC01828188232D
:100B600081F09081891750F483819181891718F061
:100B700081E0848304C08F5F838301C013828481FA
:100B8000089580E008951F920F920FB60F921124DE
:100B90008F93809149028A3020F48F5F80934902BD
:100BA00002C010924902809127028A3020F48F5FA0
:100BB0008093270202C01092270280914A0284315A
:100BC00020F48F5F80934A0202C010924A02809103
:100BD0002802843120F48F5F8093280202C0109293
:100BE000280216BC8F910F900FBE0F901F90189582
:100BF0001F920F920FB60F9211242F933F934F9392
:100C00005F936F937F938F939F93AF93BF93CF9394
:100C1000DF93EF93FF9380915802882339F0E3E448
:100C2000F2E08385948501969487838780914E02B4
:100C300090914F02019621F410924F0210924E02B1
:100C400080913602882339F0E1E2F2E083859485D1
:100C500001969487838780912C0290912D020196B2
:100C600021F410922D0210922C02909162019F5F4C
:100C7000909362018DEC989F812D112482958F7045
:100C8000880F880F282F220F220F820F981305C07C
:100C900010921C0281E080931B02943638F081E0B0
:100CA00080931C0210921B021092620180E192E07C
:100CB0000E940B058093100285E092E00E940B05D4
:100CC000809305028AEF91E00E940B058093FA0160
:100CD0008FEE91E00E940B058093EF0184EE91E08E
:100CE0000E940B058093E40189ED91E00E940B05C1
:100CF0008093D9018EEC91E00E940B058093CE0188
:100D000083EC91E00E940B058093C3018091570111
:100D1000909158019093A8018093A70187EA91E0F0
:100D20000E9435058091590190915A0190938C0150
:100D300080938B018BE891E00E943505C6E8D1E0F5
:100D4000809155018883CE010E94AD0580915301A9
:100D50008093810181E891E00E94AD058C81811131
:100D600004C080918501882339F083E492E00E94D9
:100D7000380181E080931602CCE7D1E080915101E7
:100D80008883CE010E94AD0580914F018093770149
:100D900087E791E00E94AD058C81811104C08091AC
:100DA0007B01882339F081E292E00E94380181E0E2
:100DB00080930B02E3E4F2E08091FA018183809159
:100DC000EF018083E1E2F2E08091E4018183809190
:100DD000D901808380914B019FEF980F993018F4CF
:100DE0008F5F80934B018BE396EF90938500809308
:100DF0008400FF91EF91DF91CF91BF91AF919F91CF
:100E00008F917F916F915F914F913F912F910F90B3
:100E10000FBE0F901F901895E0E1F2E0108216824D
:100E2000108611861286158225E0218389E290E0E2
:100E30009383828330E83483E5E0F2E01082108609
:100E4000128611861682158221839383828321E084
:100E50002483EAEFF1E01082158222E0218393835C
:100E6000828330E23483EFEEF1E010821582218339
:100E70009383828330E43483E4EEF1E010821582C0
:100E80002183938382832483E9EDF1E0108215822C
:100E900021839383828334E03483EEECF1E010828B
:100EA0001582218311869383828330E13483E3ECBE
:100EB000F1E010821186158221839383828388E07A
:100EC00084830895A6E8B1E014961C9214971C92AE
:100ED000E5E4F1E0918111969C93119713961C9291
:100EE00013978081282F220F220F820F12968C9346
:100EF000A1E8B1E014961C9214971C9211969C9351
:100F0000119713961C92139712968C93ACE7B1E04D
:100F100014961C9214971C92938111969C9311978E
:100F200013961C9213978281282F220F220F820F73
:100F300012968C93A7E7B1E014961C9214971C921A
:100F400011969C93119713961C92139712968C935B
:100F5000A2E7B1E014961C9214971C928481982FFA
:100F6000990F990F890F12968C93129713961C92D2
:100F7000ADE6B1E014961C9214971C9212968C93D5
:100F8000129713961C92A8E6B1E014961C9214973F
:100F90001C928581982F990F990F890F12968C9327
:100FA000129713961C92E3E6F1E01482108282837A
:100FB000138208951F920F920FB60F9211242F9350
:100FC0003F934F935F936F937F938F939F93AF93D1
:100FD000BF93EF93FF93F894ECE7F0E0808190816A
:100FE000907F90838F70823009F46BC028F488233F
:100FF00061F08130C1F1EEC0843009F4BCC008F466
:101000008DC0853009F4CFC0E5C080917800909103
:1010100079009093500180934F01809363018091F8
:101020002402811104C080912A02882321F085E0E6
:101030008093640103C085E08093640183E691E0BE
:101040000E94AD0580916701882339F081E292E02A
:101050000E94380181E080930B02ECE7F0E0808190
:1010600081608083BEC080917800909179009093D8
:101070005201809351018093680180912402811173
:1010800004C080912A02882321F085E080936901C1
:1010900003C085E08093690188E691E00E94AD0578
:1010A00080916C01882339F081E292E00E9438013E
:1010B00081E080930B02ECE7F0E080818260808326
:1010C00090C0809178009091790090935601809320
:1010D00055018093720180914602811104C0809174
:1010E0004C02882321F085E08093730102C01092A6
:1010F000730182E791E00E94AD058091760188231B
:1011000039F083E492E00E94380181E08093160276
:10111000ECE7F0E080818360808363C08091780099
:1011200090917900909354018093530180936D01C5
:1011300080914602811104C080914C02882321F0E5
:1011400085E080936E0102C010926E018DE691E001
:101150000E94AD0580917101882339F083E492E00B
:101160000E94380181E080931602ECE7F0E0808174
:101170008460808336C02091780030917900ADEC96
:10118000BCEC0E94CD11969587959695879596957E
:10119000879590935A0180935901ECE7F0E08081A4
:1011A000856080831EC02091780030917900ADEC7D
:1011B000BCEC0E94CD11969587959695879596954E
:1011C00087959093580180935701ECE7F0E0808178
:1011D000808307C0ECE7F0E08081807F808380819E
:1011E00080837894EAE7F0E0808180648083FF91D7
:1011F000EF91BF91AF919F918F917F916F915F918F
:101200004F913F912F910F900FBE0F901F90189507
:10121000EBE8F1E082E08487108E178A128E118E3F
:10122000138EE7EAF1E08487108E178A128E118EF2
:10123000138EEAE7F0E080818D68808380E48093FC
:101240007C0080818064808308951F93CF93DF9317
:10125000C3E4D2E082E290E09D8F8C8F20E42E8F59
:1012600098A38F8F80E889A3CE010E94DB001E82A5
:101270001F82C1E2D2E085E290E09D8F8C8F14E066
:101280001E8F98A38F8F88E089A3CE010E94DB0078
:101290001E838AE08F83DF91CF911F910895FB0118
:1012A0009281981730F091E02181821718F490E034
:1012B00001C090E0892F0895CF93DF93CDB7DEB7BB
:1012C0002B970FB6F894DEBF0FBECDBF80EC81B96F
:1012D0008DE084B980E487B9E0E6F0E08081886140
:1012E00080838EE0808314BC82E085BD16BC1092A2
:1012F000800083E0809381008BE396EF90938500DC
:10130000809384000E94110380913E01882319F08C
:1013100081500E94990E78940E940C070E94250922
:101320000E9462070E9408090E945D0F81E085BB50
:1013300080936E0086BB80936F001B860F2EF6E8AD
:101340008F2EF1E09F2EF02D0F2EF1E82F2EF1E0E1
:101350003F2EF02D0F2EF0E1CF2EF2E0DF2EF02DFC
:101360000F2EF3E4AF2EF2E0BF2EF02D0F2EF5E09E
:10137000EF2EF2E0FF2EF02D0F2EFCE74F2EF1E0C6
:101380005F2EF02D0F2EF7E76F2EF1E07F2EF02D60
:10139000A895D40114968C918111A2C0F101848189
:1013A00081119EC08091760181119AC08091710156
:1013B000811196C08091CC01882331F01092CC012C
:1013C000F1E0FB8791E001C090E0D6018C91882389
:1013D00089F080914001882321F0F70180818111FB
:1013E00009C081E0D50112968C93129784E01D9676
:1013F0008C932DC0F5018281882349F0158686855E
:10140000811125C0808D811122C0128220C080915F
:10141000A601882319F08091A20106C0E7EAF1E055
:10142000818D238D222399F081110FC0D5011E9645
:101430002C911E97211109C058962C915897211173
:1014400004C057962C91222311F0F5018587D6010F
:1014500018968C911897882329F0F501128E18960A
:101460001C9211C0D5015B968C915B9781110BC0CA
:101470005A968C915A97882331F0F7018081811117
:1014800002C05A961C92D5015A968C915A975B9637
:101490008C935B97EEECF1E0808113968C93A3EC38
:1014A000B1E08C91F5018483882321F081E082836F
:1014B00084E08587992319F0D5011D961C92E1E4FB
:1014C000F1E08081D50119968C93199782811A9643
:1014D0008C931A97838118968C93C5010E946201A0
:1014E000F201848181118CC0D30114968C918111F9
:1014F00087C080916C01811183C080916701811147
:101500007FC0F7018081882379F080914001882392
:1015100021F0D6018C91811107C0E1E2F2E081E077
:10152000828384E085872DC080912302882369F01F
:10153000E1E2F2E015868685811123C080913902AF
:1015400081111FC0109223021CC08091C201882308
:1015500019F08091BE0106C0EBE8F1E0818D938D1A
:10156000992379F081110BC090912F02911107C03E
:1015700090913902911103C090913802911180939A
:101580002E02F7018085882321F010923B021086FD
:101590000EC080913C0281110AC080913B028823D9
:1015A00031F0D6018C91811102C010923B02E1E230
:1015B000F2E0828D838FAEECB1E08C918383A3EC5B
:1015C000B1E08C918483882321F081E0828384E0E0
:1015D0008587BB85B11110922E02E1E2F2E0A1E411
:1015E000B1E011968C911197818712968C91129788
:1015F000828713968C918087CF010E9462011B869F
:10160000F6018285882391F08681882379F0D401C0
:1016100014961C9210927601F101148210927101BD
:10162000D60116961C9216971A961C92F70182857F
:10163000882391F08681882379F0D20114961C9238
:1016400010926C01F301148210926701D701169673
:101650001C9216971A961C92D5015896EC915897A1
:10166000E0931E0257968C9180932002A1E2B2E093
:1016700058969C91589790931D0257962C912093C1
:101680001F026091FA01362F330F330F6091EF0183
:10169000660F660F660F632B4E2F482B462B30913B
:1016A000E401B0E13B9FB0011124642B3091D901DA
:1016B000F0E23F9FA0011124462BD6013C91B0E4FB
:1016C0003B9FB0011124642BD7013C91B0E83B9FB4
:1016D000A0011124462B392F322B330F432B40937B
:1016E0006101D40114964C91D10114965C91D20100
:1016F00014967C91D30114966C91880F880FEE0F8D
:10170000EE0FEE0F8E2B8360B0E12B9F9001112422
:10171000822BE0E29E9F90011124282BE42FE52BE1
:1017200030E4E39FF00111242E2B972F962B80E8B5
:10173000989FF0011124E22BE09360013091760133
:10174000E0917101F0916C0110916701A3ECB1E09F
:101750008C91282F220F220F220FAEECB1E08C913A
:10176000880F880F822B232F2E2B982F922B8F2FB1
:10177000812B880F892B80935F0131110EC0E111FD
:101780000CC0F1110AC0111108C0411106C051115D
:1017900004C0711102C0662311F0289A01C0289874
:1017A00080911C02882309F4FFC085E08093F60233
:1017B00084E08093F5020E946C0F10921C028091CD
:1017C000F7028130E1F710924B01EBEEF2E08181FC
:1017D00080935D01028100935C01138110935B0192
:1017E000812F90E0FC013197EA32F10508F0DAC070
:1017F000E859FF4F0C94C71180914E01081709F466
:10180000D3C08DEF800F823608F009E000934E01BF
:1018100081E00E94AF04C8C080914D01081709F40F
:10182000C3C08DEF800F823608F004E100934D01B4
:1018300082E00E94AF04B8C080914C01081709F4FF
:10184000B3C0053608F00AE000934C0183E00E9423
:10185000AF04AAC0812F90E00A97FC01E557FE4F24
:101860002585021709F4A0C02FEF200F233608F0BA
:101870009BC0FC01E557FE4F0587812F0E94AF04F6
:1018800093C0812F90E04497FC01E955FE4F2585D8
:10189000021709F489C02FEF200F233608F084C007
:1018A000FC01E955FE4F0587812F0E94AF047CC0E3
:1018B000812F90E0FC017E97FA87E987EB5BFE4F72
:1018C0008081081709F470C069857A85660F771FD3
:1018D000660F771F645E7E4F802F0E944F0988231A
:1018E00009F462C0E985FA85EB5BFE4F0083812F26
:1018F0000E94AF040E94620757C0812F90E09C01B4
:10190000245231093A872987F901EF5BFE4F808124
:10191000081709F449C0B901660F771F660F771FD2
:10192000645F7E4F802F0E944F098823E9F1E9858B
:10193000FA85EF5BFE4F0083812F0E94AF0434C015
:1019400080914001081781F168E071E0802F0E94CA
:101950004F09882349F10093400188E20E94AF04B7
:1019600023C0812F90E0DC019997BA87A987FD01F8
:10197000E25CFE4F80810817B9F0BD01660F771F4A
:10198000660F771F60507F4F802F0E944F0988237A
:1019900059F0E985FA85E25CFE4F0083812F0E94B1
:1019A000AF0402C010925C0180911B02882309F4ED
:1019B000EFCC809161018983809160018A8380915D
:1019C0005F018B831C821D821E821F82188680917C
:1019D0003E01882361F040913F0150E060E070E0FB
:1019E00008E09E012F5F3F4F80E00E94C80D81E01C
:1019F0008093F60284E08093F50280916101EBEE22
:101A0000F2E0808380916001818380915F01828315
:101A100020915D01822F90E0FC013197EA32F105BF
:101A200008F06DC0EE56FF4F0C94C71180914E0127
:101A300080935E0166C080914D0180935E0161C01C
:101A400080914C0180935E015CC08091590180932C
:101A50005E0157C0F5018585880F982F990F990F62
:101A6000890F9685890F80935E014BC08091A601F6
:101A700080935E0146C08091570180935E0141C012
:101A8000E1E2F2E08585880F982F990F990F890F71
:101A90009685890F80935E0134C08091C201809346
:101AA0005E012FC0E22FF0E0E557FE4F8381809367
:101AB0005E0127C0E22FF0E0E056FE4F8081809368
:101AC0005E011FC0E22FF0E0E95DFE4F8081809350
:101AD0005E0117C0E22FF0E0E35EFE4F808180934D
:101AE0005E010FC08091400180935E010AC0E22F29
:101AF000F0E0EB5EFE4F808180935E0102C01092A9
:101B00005E0180915E018093EE020E94750F10923B
:101B10001B023ECC46980895469A08950E948A0D6D
:101B200080EC0E94520F8FE891E00197F1F700C01E
:101B300000000E948C0D8FE39CE90197F1F700C033
:101B400000000895CF93C82F0E948A0D83E00E9461
:101B5000520F8C2F0E94520F0E94570FC82F0E94C5
:101B60008C0D8C2FCF910895CF93DF93D82FC62F54
:101B70000E948A0D82E00E94520F8D2F0E94520F08
:101B80008C2F0E94520F0E948C0DDF91CF910895EF
:101B90008F929F92AF92BF92EF92FF920F931F93FB
:101BA000CF93C82F4A015B0179010E948A0D82E020
:101BB0000E94520F8C2F8295807F805D0E94520F71
:101BC000802F82958695869583700E94520F04FF20
:101BD0003AC0D501C401689412F8B695A7959795B7
:101BE00087951694D1F70E94520F282D2295220F27
:101BF000207ED501C401072E7BE1B695A795979568
:101C000087957A95D1F7702D822B88600E94520FAC
:101C1000D501C401072E73E1B695A79597958795D1
:101C20007A95D1F7702D0E94520FD501C401072E6D
:101C30007BE0B695A795979587957A95D1F7702D06
:101C40000E94520F18C0D501C401689412F8B695CD
:101C5000A795979587951694D1F70E94520F882DD6
:101C60008295880F807E0E94520F80E00E94520F62
:101C700080E00E94520F802F8F7005FD02C090E01F
:101C800001C090E4892B0E94520F0F7010E01016D3
:101C900011066CF4C0E0F701EC0FF11D80810E9489
:101CA000520FCF5F8C2F90E080179107A4F30E9412
:101CB0008C0D0E948A0D81E80E94520F0E948C0DAB
:101CC000CF911F910F91FF90EF90BF90AF909F9099
:101CD0008F9008951F93CF93DF93182FD62FC42F83
:101CE0000E948A0D85E00E94520F812F0E94520FA0
:101CF0008D2F0E94520F8C2F0E94520F0E948C0D2C
:101D0000DF91CF911F910895CF93DF93D62FC42FEA
:101D1000682F8AE20E94B40D6D2F89E20E94B40DF3
:101D20004C2F67E088E20E946A0E81E0DF91CF913C
:101D30000895CF93DF93D82F61E080E00E94470F92
:101D40000E948E0D40E860EE8FE00E946A0E8EE0E9
:101D50000E94A20D90E0959587959595879595950C
:101D600087959595879595958795049781F78EE04A
:101D70000E94A20DC82F8EE00E94A20D282F30E0F5
:101D8000359527953595279535952795359527953B
:101D9000359527952430310551F58EE00E94A20D2E
:101DA00040E860EE8FE00E946A0E8FE39CE90197A5
:101DB000F1F700C0000045E46AEE8D2F0E94840E0A
:101DC00040E060EE8FE00E946A0E8EE00E94A20D5D
:101DD00090E0959587959595879595958795959597
:101DE000879595958795892B81F780E001C08C2F89
:101DF000DF91CF9108951F920F920FB60F92112489
:101E00002F933F938F939F93EF93FF93809168025B
:101E100090E001968F7399272091670230E0821736
:101E2000930739F0809368022EB5FC01E559FD4F08
:101E3000208390916A0280916902981771F08091D5
:101E4000690290E001968F73992780936902FC01E3
:101E5000E555FD4F80818EBD0FC0809165028823BE
:101E600039F0809165028150809365021EBC04C0E8
:101E70002C9A81E080936602FF91EF919F918F9160
:101E80003F912F910F900FBE0F901F90189590EBE0
:101E900094B92C9A24E0829FC00111246065862B9E
:101EA0008CBD08958EBD0DB407FEFDCF08951EBCF8
:101EB0000DB407FEFDCF8EB5089581E08093F70243
:101EC00088E08093B8001092B9008FEF8093BB0038
:101ED00084E08093BC0008951092F70281E0809323
:101EE000F40285EA8093BC0008951092F7021092E4
:101EF000F40285EA8093BC0008951F920F920FB6FA
:101F00000F9211242F933F938F939F93EF93FF93FF
:101F10008091B900883229F148F4803109F446C033
:101F20008831B9F0883009F072C00AC0803509F4F0
:101F300044C0883509F45FC0803409F068C049C0E6
:101F40001092F8028EEC8093BB0085E88093BC0071
:101F500064C08091F6028093BB0085E88093BC004A
:101F60005CC08091F402813021F485EA8093BC004A
:101F700054C09091F8028091F502981780F4E09196
:101F8000F80281E08E0F8093F802F0E0E551FD4FFA
:101F900080818093BB0085E88093BC003EC084E9CB
:101FA0008093BC0081E08093F70237C08FEC809370
:101FB000BB0085E88093BC0030C0E091F80281E06E
:101FC0008E0F8093F802F0E08091BB00E551FD4F49
:101FD00080832091F80230E08091F50290E0019733
:101FE0002817390724F485EC8093BC0016C085E8D7
:101FF0008093BC0012C0E091F80281E08E0F8093C4
:10200000F802F0E08091BB00E551FD4F808384E948
:102010008093BC0081E08093F702FF91EF919F9144
:102020008F913F912F910F900FBE0F901F90189599
:102030005058BB27AA270E9430100C9474110E949C
:10204000661138F00E946D1120F039F49F3F19F4A9
:1020500026F40C9463110EF4E095E7FB0C945D11EB
:10206000E92F0E94851158F3BA1762077307840796
:10207000950720F079F4A6F50C94A7110EF4E095DD
:102080000B2EBA2FA02D0B01B90190010C01CA0132
:10209000A0011124FF27591B99F0593F50F4503EDD
:1020A00068F11A16F040A22F232F342F4427585FCF
:1020B000F3CF469537952795A795F0405395C9F7E7
:1020C0007EF41F16BA0B620B730B840BBAF091509F
:1020D000A1F0FF0FBB1F661F771F881FC2F70EC03E
:1020E000BA0F621F731F841F48F487957795679511
:1020F000B795F7959E3F08F0B0CF9395880F08F0FD
:102100009927EE0F9795879508950E94391108F445
:1021100081E008950E949E100C9474110E946D112C
:1021200058F00E94661140F029F45F3F29F00C94AA
:102130005D1151110C94A8110C9463110E9485112A
:1021400068F39923B1F3552391F3951B550BBB27E6
:10215000AA2762177307840738F09F5F5F4F220F2B
:10216000331F441FAA1FA9F335D00E2E3AF0E0E822
:1021700032D091505040E695001CCAF72BD0FE2F6C
:1021800029D0660F771F881FBB1F26173707480700
:10219000AB07B0E809F0BB0B802DBF01FF279358B8
:1021A0005F4F3AF09E3F510578F00C945D110C940E
:1021B000A8115F3FE4F3983ED4F386957795679531
:1021C000B795F7959F5FC9F7880F911D96958795ED
:1021D00097F90895E1E0660F771F881FBB1F62170C
:1021E00073078407BA0720F0621B730B840BBA0BCA
:1021F000EE1F88F7E0950895E89409C097FB3EF438
:1022000090958095709561957F4F8F4F9F4F992343
:10221000A9F0F92F96E9BB279395F69587957795C1
:102220006795B795F111F8CFFAF4BB0F11F460FF81
:102230001BC06F5F7F4F8F4F9F4F16C0882311F0D9
:1022400096E911C0772321F09EE8872F762F05C0ED
:10225000662371F096E8862F70E060E02AF09A9588
:10226000660F771F881FDAF7880F9695879597F97D
:102270000895990F0008550FAA0BE0E8FEEF161617
:102280001706E807F907C0F012161306E407F5076A
:1022900098F0621B730B840B950B39F40A2661F0DE
:1022A000232B242B252B21F408950A2609F4A14081
:1022B000A6958FEF811D811D089597F99F6780E88E
:1022C00070E060E008959FEF80EC089500240A9488
:1022D0001616170618060906089500240A94121601
:1022E0001306140605060895092E0394000C11F434
:1022F000882352F0BB0F40F4BF2B11F460FF04C0E1
:102300006F5F7F4F8F4F9F4F089557FD9058440F39
:10231000551F59F05F3F71F04795880F97FB991F44
:1023200061F09F3F79F08795089512161306140601
:10233000551FF2CF4695F1DF08C01616170618068E
:10234000991FF1CF86957105610508940895E89469
:10235000BB2766277727CB0197F908950E9439118B
:1023600008F48FEF089597FB072E16F4009407D01A
:1023700077FD09D00E94DC1107FC05D03EF4909552
:1023800081959F4F0895709561957F4F0895EE0F49
:10239000FF1F0590F491E02D0994A29FB001B39F17
:1023A000C001A39F700D811D1124911DB29F700D5E
:1023B000811D1124911D0895AA1BBB1B51E107C06B
:1023C000AA1FBB1FA617B70710F0A61BB70B881FC5
:1023D000991F5A95A9F780959095BC01CD01089554
:1023E000DC01CB01FC01F999FECF06C0F2BDE1BDD5
:1023F000F89A319600B40D9241505040B8F70895C4
:10240000F999FECF92BD81BDF89A992780B50895BC
:10241000DC01CB0103C02D910E94131241505040AA
:10242000D0F70895262FF999FECF1FBA92BD81BD2E
:1024300020BD0FB6F894FA9AF99A0FBE0196089546
:04244000F894FFCF3E
:10244400040006001101FE000000010000000A0063
:1024540000000A000A010A0004010A000A0132000D
:102464000A0163020A0132000A0163022D005000CE
:0E2474002D0050000A191E23283D42474C5AE5
:00000001FF
