S01500006672696374696F6E5F76322E352E7372656347
S11300000C94B6000C94D3000C94D3000C94D3003D
S11300100C94D3000C94D3000C94D3000C94D30010
S11300200C94D3000C94D3000C94D3000C94D30000
S11300300C94D3000C94D3000C94D3000C94B3050B
S11300400C94D3000C94D3000C947E050C94D30030
S11300500C94D3000C94D3000C94D3000C94D300D0
S11300600C9495070C94D3000C94000D0C94D300BD
S11300700C94D3000C94D3000C94D3007F04860416
S11300808D04BE04BE04BE04BE04BE04BE049404B7
S1130090940494049404940494049404940494049C
S11300A094049D049D049D049D049D049D049D044D
S11300B09D049D049D04A604A604A604A604A60407
S11300C0A604AF04AF04AF04AF04B8049D0BAD0B9A
S11300D0BD0B4E0C4E0C4E0C4E0C4E0C4E0CCB0B62
S11300E0CB0BCB0BCB0BCB0BCB0BCB0BCB0BCB0B5C
S11300F0CB0BDD0BDD0BDD0BDD0BDD0BDD0BDD0BCE
S1130100DD0BDD0BDD0BEF0BEF0BEF0BEF0BEF0B51
S1130110EF0B180C180C180C180C3D0C740C790C03
S11301207E0C830C880C940C990C9E0CAB0CB00CBC
S1130130B00CB00CB00CB00CB00CB00CB00CB00CDB
S1130140B00CB80CB80CB80CB80CB80CB80CB80C93
S1130150B80CB80CB80CC00CC00CC00CC00CC00C53
S1130160C00CC80CC80CC80CC80CD00C11241FBE81
S1130170CFEFD8E0DEBFCDBF11E0A0E0B1E0EAE40C
S1130180FFE102C005900D92A633B107D9F722E032
S1130190A6E3B1E001C01D92A936B207E1F70E94BF
S11301A008090C94A30F0C940000FC01128E138E0A
S11301B0108A1786118A128A138A148A168A108260
S11301C01282118214861386178A108E158A14825D
S11301D01682178210861186128613821686158659
S11301E00895FC01A48DB58D9C91868D80958923FD
S11301F08C93A78DB0A19C9181A1809589238C9328
S11302000895FC018381811105C096818285891737
S113021098F004C096818085891770F0A48DB58DFF
S11302209C91868D892B8C93A78DB0A19C9181A1E3
S1130230809589238C930895CF010E94F10008953D
S1130240FC01A48DB58D9C91868D809589238C931A
S1130250A78DB0A19C9181A1892B8C9381E0878B80
S1130260108E0895CF93DF93EC010E94F1001F8A52
S1130270188EDF91CF910895FC0181858823C1F008
S113028091E0978B108E9781981770F4A48DB58D9B
S11302909C91868D809589238C93A78DB0A19C9188
S11302A081A1892B8C930895CF010E94F1000895B8
S11302B0CF010E94320108954F925F926F927F9214
S11302C08F929F92AF92BF92CF92DF92EF92FF9262
S11302D00F931F93CF93DF93EC010D858E858017C9
S11302E020F09F89911179C1C3C010E0081B110946
S11302F08F89882329F00115110511F401E010E01C
S1130300898D811115C0CE010E9432012FEF89EF32
S113031090E0215080409040E1F700C0000081E06F
S11303208D8B8F8B188E1C861B868A8181111E866D
S113033081E0898F8A80882019F02AE030E002C0A9
S11303402CE030E08C81882311F02CE030E07090B8
S11303504201729E5001739EB00C1124909044018E
S1130360929EC001939E900D112496958795969523
S11303708795809F6001819FD00C909FD00C1124A1
S1130380EB84FC848F859889E816F90681F020E0D7
S113039030E040E85FE369897A898B899C890E940F
S11303A09C0D698B7A8B8B8B9C8BF88AEF86B501BD
S11303B080E090E00E947F0E9B01AC0169897A89FC
S11303C08B899C890E94310F88232CF091E0791449
S11303D018F490E001C090E09E8BCE14DF0488F006
S11303E08E85843008F009C128812111FAC0911149
S11303F0F8C0CE010E94200181E08D8B1F821D82F6
S113040037C08D89882329F08E85843028F4080F1D
S11304100E878E85843010F0811003C01D8A1C86DF
S11304201B869D81911113C08430F9F4898588233A
S1130430E1F0CE010E94F1002FEF89EF90E021500E
S113044080409040E1F700C0000081E08D83888106
S113045081110BC08E85843041F48985882329F06D
S11304601D8ACE010E943C0103C0CE010E943201CC
S11304708D850E85801720F0988D9111B6C0A4C08B
S113048010E0081B1109888D882329F00115110536
S113049011F401E010E0898D882391F0CE010E94CF
S11304A032012FEF89EF90E0215080409040E1F736
S11304B000C0000081E08D8B888F1F8A1C861B86FC
S11304C0198E8B81882341F0688570E084E690E082
S11304D00E94360F6B0105C00F2EFAE0CF2ED12CEF
S11304E0F02DBD84B11008C0809143018C9D400162
S11304F08D9D900C112412C0209144012C9DC001AB
S11305002D9D900D11249695879596958795809F9E
S11305104001819F900C909F900C1124EB84FC84EB
S11305208F859889E816F906A9F149885A886B8855
S11305307C8820E030E0A901C301B2010E94310FA0
S11305401816BCF4B60180E090E00E947F0E9B0177
S1130550AC0160E070E080E291E40E940D0E9B012A
S1130560AC01C301B2010E949B0D698B7A8B8B8B0A
S11305709C8B20E030E0A90169897A898B899C8968
S11305800E94080E882324F4198A1A8A1B8A1C8A5A
S1130590F88AEF868E149F0448F08981811106C081
S11305A0CE010E94010181E08D8B0EC08D898823CC
S11305B029F0BB20F1F08E85801B8E871D8A1C8656
S11305C01B86CE010E9432018981882321F0198A79
S11305D01A8A1B8A1C8A8E8516C010E0081B110912
S11305E08ACE9D89992369F012CF10E0081B110966
S11305F04DCF1E86E3CF8E850FCF8D898111FBCF22
S113060008CF8E850BCFDF91CF911F910F91FF9073
S1130610EF90DF90CF90BF90AF909F908F907F909E
S11306206F905F904F9008950F931F93CF93DF9334
S11306308FE190E00E94830F809344018FE19EE458
S11306400197F1F700C00000809144019DEF980FDD
S1130650923680F0893071F089E08093440169E03A
S11306608FE190E00E94950FCFE1DEE42197F1F74E
S113067000C0000081E290E00E94830F8093430158
S11306808FE19EE40197F1F700C0000080914301DF
S11306909DEF980F923680F0843171F084E180935D
S11306A0430164E181E290E00E94950FCFE1DEE432
S11306B02197F1F700C0000080E290E00E94830FD0
S11306C0809342018FE19EE40197F1F700C000009E
S11306D080914201853680F08A3071F08AE08093FF
S11306E042016AE080E290E00E94950FCFE1DEE4EF
S11306F02197F1F700C000004AE050E065E170E0A6
S11307008EE891E00E94730F8FE19EE40197F1F768
S113071000C00000EEE8F1E0CCE2D1E028E931E0ED
S1130720DE0190E041E080818150833618F08C91A5
S11307308083942F31961196E217F307A1F799233A
S113074071F04AE050E065E170E08EE891E00E94CB
S11307508B0F8FE19EE40197F1F700C000004AE09F
S113076050E06BE070E08AEA91E00E94730F8FE141
S11307709EE40197F1F700C00000EAEAF1E024EBFF
S113078031E090E041E080818150833618F0888127
S11307908083942F31962196E217F307A1F79923CA
S11307A041F04AE050E06BE070E08AEA91E00E9498
S11307B08B0F46E050E065E070E08BE391E00E942F
S11307C0730FCFE1DEE42197F1F700C00000ABE343
S11307D0B1E0E4E1F1E04CE251E060E071E08D0170
S11307E08C919F019281981718F09181891728F4B0
S11307F0E9018881E8018883672F11963496E4170C
S1130800F50769F7662371F046E050E065E070E0B3
S11308108BE391E00E948B0F8FE19EE40197F1F747
S113082000C0000044E050E061E070E087E391E044
S11308300E94730FCFE1DEE42197F1F700C00000BE
S1130840A7E3B1E0E4E0F1E044E151E060E071E00D
S11308508D018C919F019281981718F091818917CD
S113086028F4E9018881E8018883672F119634967A
S11308704E175F0769F7662369F044E050E067E3C9
S113088071E0CB010E948B0F8FE19EE40197F1F799
S113089000C0000080E090E00E94830F8093360146
S11308A0CFE1DEE42197F1F700C00000809136012A
S11308B090910201981720F090910101891770F42A
S11308C0609100016093360180E090E00E94950FF2
S11308D08FE19EE40197F1F700C00000DF91CF9112
S11308E01F910F910895F89490E0FC013197E8323C
S11308F0F10508F043C0E25CFF4F0C944A0F60918D
S113090044018FE190E00E94950F38C0609143014B
S113091081E290E00E94950F31C06091420180E233
S113092090E00E94950F2AC04AE050E065E170E033
S11309308EE891E00E948B0F21C04AE050E06BE00A
S113094070E08AEA91E00E948B0F18C046E050E004
S113095065E070E08BE391E00E948B0F0FC044E0F0
S113096050E061E070E087E391E00E948B0F06C0E5
S11309706091360180E090E00E94950F78948FE1B9
S11309809EE40197F1F700C000000895FC01108275
S1130990A281B3819C9184818923A9F48581918169
S11309A0891748F08781882319F081E0808782873E
S11309B0178281E003C08F5F858380E091819F3F30
S11309C059F4158209C08781811102C081E08187B1
S11309D0158281E0878380E09681911180E00895FB
S11309E00F931F93CF93DF938C01DC014D915C91A6
S11309F011971D968C911D9790E04817590730F078
S1130A0056968C9190E08417950728F4E801188E87
S1130A101F8A1B8E58C081E0F801838FD80124E01F
S1130A2030E0BD011D968C911D9790E084179507C9
S1130A30C8F41E968C911E9790E08417950790F049
S1130A4012968C911297E8019C85891718F0388FBB
S1130A502F8B03C08F5FED018A839F3F29F4EB0145
S1130A601A8202C0EB011A822150310911962F3FDC
S1130A70DFEF3D07B1F6D8014D915C9124E030E001
S1130A80DF01868990E048175907A0F4858990E032
S1130A904817590778F08385E8019C85891718F071
S1130AA03A8F298F02C08F5F83879F3F29F41B965B
S1130AB01C9202C01B961C922150310931972F3F82
S1130AC0DFEF3D07E9F6DF91CF911F910F91089574
S1130AD0FC018281882381F09081891750F48381FD
S1130AE09181891718F081E0848304C08F5F838328
S1130AF001C013828481089580E008951F920F92AB
S1130B000FB60F9211248F9380913F028A3020F404
S1130B108F5F80933F0202C010923F0280911D02BA
S1130B208A3020F48F5F80931D0202C010921D0250
S1130B3080914002843120F48F5F8093400202C090
S1130B401092400280911E02843120F48F5F8093C2
S1130B501E0202C010921E0216BC8F910F900FBE8F
S1130B600F901F9018951F920F920FB60F92112499
S1130B702F933F934F935F936F937F938F939F93A1
S1130B80AF93BF93CF93DF93EF93FF9380914E0284
S1130B90882339F0E9E3F2E083859485019694870C
S1130BA083878091440290914502019621F410922A
S1130BB045021092440280912C02882339F0E7E127
S1130BC0F2E083859485019694878387809122023D
S1130BD090912302019621F4109223021092220292
S1130BE0909158019F5F909358018DEC989F812DAF
S1130BF0112482958F70880F880F282F220F220FBF
S1130C00820F981305C01092120281E080931102A2
S1130C10943638F081E080931202109211021092FF
S1130C20580186E092E00E94C604809306028BEF8E
S1130C3091E00E94C6048093FB0180EF91E00E9442
S1130C40C6048093F00185EE91E00E94C60480936F
S1130C50E5018AED91E00E94C6048093DA018FECED
S1130C6091E00E94C6048093CF0184EC91E00E943D
S1130C70C6048093C40189EB91E00E94C60480936A
S1130C80B90180914D0190914E0190939E01809302
S1130C909D018DE991E00E94F00480914F019091B3
S1130CA05001909382018093810181E891E00E9438
S1130CB0F004CCE7D1E080914B018883CE010E94FF
S1130CC06805809149018093770187E791E00E944C
S1130CD068058C81811104C080917B01882339F0DF
S1130CE089E392E00E94320181E080930C02C2E722
S1130CF0D1E0809147018883CE010E9468058091EC
S1130D00450180936D018DE691E00E9468058C8118
S1130D10811104C080917101882339F087E192E048
S1130D200E94320181E080930102E9E3F2E08091C4
S1130D30F00181838091E5018083E7E1F2E0809115
S1130D40DA0181838091CF018083809141019FEFFB
S1130D50980F993018F48F5F809341018BE396EFDD
S1130D609093850080938400FF91EF91DF91CF9160
S1130D70BF91AF919F918F917F916F915F914F91AF
S1130D803F912F910F900FBE0F901F901895E6E0A2
S1130D90F2E010821682108611861286158225E0F2
S1130DA0218389E290E09383828330E83483EBEFFC
S1130DB0F1E0108210861286118616821582218334
S1130DC09383828321E02483E0EFF1E01082158293
S1130DD022E021839383828330E23483E5EEF1E0E1
S1130DE01082158221839383828330E43483EAED75
S1130DF0F1E0108215822183938382832483EFECB4
S1130E00F1E01082158221839383828334E034835A
S1130E10E4ECF1E0108215822183118693838283AE
S1130E2030E13483E9EBF1E01082118615822183ED
S1130E309383828388E084830895ACE7B1E01496B9
S1130E401C9214971C92EBE3F1E0918111969C9310
S1130E50119713961C9213978081282F220F220F2B
S1130E60820F12968C93A7E7B1E014961C92149704
S1130E701C9211969C93119713961C921397129699
S1130E808C93A2E7B1E014961C9214971C92938160
S1130E9011969C93119713961C9213978281282F75
S1130EA0220F220F820F12968C93ADE6B1E01496B6
S1130EB01C9214971C9211969C93119713961C9252
S1130EC0139712968C93A8E6B1E014961C9214978B
S1130ED01C928481982F990F990F890F12968C93E5
S1130EE0129713961C92A3E6B1E014961C921497E1
S1130EF01C9212968C93129713961C92AEE5B1E055
S1130F0014961C9214971C928581982F990F990F0F
S1130F10890F12968C93129713961C92E9E5F1E0CF
S1130F20148210828283138208951F920F920FB647
S1130F300F9211242F933F934F935F936F937F935B
S1130F408F939F93AF93BF93EF93FF93F894ECE742
S1130F50F0E080819081907F90838F70823009F4DB
S1130F6069C028F4882361F08130B9F1ECC0843081
S1130F7009F4BAC008F48BC0853009F4CDC0E3C0CD
S1130F808091780090917900909346018093450177
S1130F908093590180911A02811104C0809120022A
S1130FA0882321F085E080935A0102C010925A01EF
S1130FB089E591E00E94680580915D01882339F0FC
S1130FC087E192E00E94320181E080930102ECE724
S1130FD0F0E0808181608083BDC080917800909131
S1130FE07900909348018093470180935E0180913A
S1130FF01A02811104C080912002882321F085E027
S113100080935F0102C010925F018EE591E00E941F
S1131010680580916201882339F087E192E00E949B
S1131020320181E080930102ECE7F0E0808182608C
S1131030808390C0809178009091790090934C01C6
S113104080934B018093680180913C02811104C01C
S113105080914202882321F085E08093690102C0D7
S11310601092690188E691E00E94680580916C0104
S1131070882339F089E392E00E94320181E0809371
S11310800C02ECE7F0E080818360808363C0809190
S113109078009091790090934A018093490180935C
S11310A0630180913C02811104C080914202882333
S11310B021F085E08093640102C01092640183E60C
S11310C091E00E94680580916701882339F089E3E3
S11310D092E00E94320181E080930C02ECE7F0E0A0
S11310E080818460808336C02091780030917900BB
S11310F0ADECBCEC0E94500F96958795969587951C
S1131100969587959093500180934F01ECE7F0E01A
S11311108081856080831EC02091780030917900A1
S1131120ADECBCEC0E94500F9695879596958795EB
S11311309695879590934E0180934D01ECE7F0E0EE
S11311408081808307C0ECE7F0E08081807F80832A
S1131150808180837894EAE7F0E0808180648083F2
S1131160FF91EF91BF91AF919F918F917F916F917B
S11311705F914F913F912F910F900FBE0F901F9051
S11311801895E1E8F1E082E08487108E178A128EC8
S1131190118E138EEDE9F1E08487108E178A128E7A
S11311A0118E138EEAE7F0E080818D68808380E4FD
S11311B080937C0080818064808308951F93CF9303
S11311C0DF93C9E3D2E082E290E09D8F8C8F20E42C
S11311D02E8F98A38F8F80E889A3CE010E94D5001B
S11311E01E821F82C7E1D2E085E290E09D8F8C8F42
S11311F014E01E8F98A38F8F88E089A3CE010E94EC
S1131200D5001E838AE08F83DF91CF911F910895CB
S1131210CF93DF9300D0CDB7DEB780EC81B98DE0FA
S113122084B9E0E6F0E08081886180838EE0808389
S113123014BC82E085BD16BC1092800083E08093CC
S113124081008BE396EF90938500809384007894DB
S11312500E9414030E94C7060E94DE080E941D0714
S11312600E94C1080E94E00C81E085BB80936E005F
S113127086BB80936F0019820F2EFCE7AF2EF1E03E
S1131280BF2EF02D0F2EF7E78F2EF1E09F2EF02DBD
S11312900F2EF8E64F2EF1E05F2EF02D06E012E05F
S11312A00F2EF9E3EF2EF2E0FF2EF02D0F2EF2E7D2
S11312B0CF2EF1E0DF2EF02D0F2EFDE66F2EF1E0A4
S11312C07F2EF02D0F2EFEE52F2EF1E03F2EF02D78
S11312D0A895D50114968C9181119FC0F401848145
S11312E081119BC0D20114968C91811196C080917A
S11312F06701811192C08091C201882331F010925C
S1131300C201B1E0B98391E001C090E0F8018081AD
S1131310882379F080913601882329F0ABEFB1E07E
S11313208C91811106C081E0F701828384E0858776
S113133032C0D70112968C911297882381F01D96A2
S11313401C921D971E968C911E97811124C058964D
S11313508C91589781111FC012961C921CC08091C9
S11313609C01882319F08091980106C0EDE9F1E011
S1131370818D238D222379F081110AC0F7012685FE
S1131380211106C0208D211103C02789222319F0C1
S1131390D7011D968C93F8018085882329F0D70105
S11313A05A961C9210860DC0F701838D811109C0D5
S11313B0828D882331F0ABEFB1E08C91811101C0B3
S11313C0128EF701828D838FA4ECB1E08C9183831C
S11313D0E9EBF1E08081D70114968C93149788236C
S11313E039F081E012968C93129784E01D968C93C9
S11313F0992311F0F7011586E7E3F1E08081D70125
S113140019968C93199782811A968C931A978381D3
S113141018968C93C7010E945C01F60184818111A6
S11314208EC0D30114968C91811189C0F1018481FD
S1131430811185C080915D01811181C0ABEFB1E064
S11314408C91882379F080913601882321F0F8016A
S11314508081811107C0E7E1F2E081E0828384E0CA
S113146085872DC080911902882369F0E7E1F2E0B5
S113147015868685811123C080912F0281111FC09A
S1131480109219021CC08091B801882319F0809130
S1131490B40106C0E1E8F1E0818D938D992379F0E0
S11314A081110BC090912502911107C090912F02D8
S11314B0911103C090912E02911180932402809186
S11314C00302882329F010923102109203020EC005
S11314D08091320281110AC080913102882331F057
S11314E0D8018C91811102C010923102E7E1F2E03F
S11314F0828D838FA4ECB1E08C918383A9EBB1E05E
S11315008C918483882321F081E0828384E0858721
S1131510B981B11110922402E7E1F2E0A7E3B1E04E
S113152011968C911197818712968C9112978287CC
S113153013968C918087CF010E945C011982F80177
S11315408285882381F08681882369F0D5011496E9
S11315501C92F2011482D40114961C921092670119
S1131560F8011682128680910502882391F08091F9
S11315700102882371F0D60114961C92F1011482A1
S1131580D30114961C9210925D01109201021092E4
S11315900502D7015896EC915897E0931402579698
S11315A08C9180931602A7E1B2E058969C915897CB
S11315B09093130257962C91209315026091F00199
S11315C0362F330F330F6091E501660F660F660FF8
S11315D0632B4E2F482B462B3091DA01B0E13B9F11
S11315E0B0011124642B3091CF01F0E23F9FA001A0
S11315F01124462BD8013C91B0E43B9FB001112447
S1131600642BABEFB1E03C91B0E83B9FA001112407
S1131610462B392F322B330F432B40935701D501DF
S113162014964C91D40114965C91D60114967C9135
S1131630D30114966C91880F880FEE0FEE0FEE0F06
S11316408E2B8360B0E12B9F90011124822BE0E26A
S11316509E9F90011124282BE42FE52B80E4E89F22
S1131660F00111242E2B972F962BA0E89A9FF001BE
S11316701124E22BE0935601F2013481E0916701D9
S1131680D1011496FC91B0915D01BA83A9EBB1E04C
S11316908C91282F220F220F220FA4ECB1E08C9101
S11316A0880F880F822B232F2E2B982F922B8A8121
S11316B08F2B880F892B8093550131110FC0E111B5
S11316C00DC0F1110BC0BA81B11108C0411106C09F
S11316D0511104C0711102C0662311F0289A01C08F
S11316E0289880911202882309F4DAC085E0809357
S11316F0660284E0809365020E94EF0C109212024D
S1131700809167028130E1F710924101EBE5F2E04C
S113171081818093530192819093520183818093BC
S11317205101482F50E0FA013197E832F10508F0F1
S1131730B5C0EA59FF4F0C944A0F809144019817A1
S113174009F4AEC08DEF890F823608F099E09093CA
S1131750440181E00E947304A3C08091430198175F
S113176009F49EC08DEF890F823608F094E19093BE
S1131770430182E00E94730493C080914201981750
S113178009F48EC0953608F09AE09093420183E004
S11317900E94730485C0282F30E02A503109F901D2
S11317A0EF57FE4F4585941709F47AC0F901EF57B6
S11317B0FE4F95870E94730473C0282F30E0245194
S11317C03109F901E356FE4F4585941709F468C0C1
S11317D0F901E356FE4F95870E94730461C0282FD8
S11317E030E02E513109F901E55CFE4F4081941738
S11317F009F456C0F901EE0FFF1FEE0FFF1FEC5E58
S1131800FE4F5281541758F4F901EE0FFF1FEE0FEB
S1131810FF1FEC5EFE4F5181451708F441C0F901EA
S1131820E55CFE4F90830E9473040E941D0738C03C
S1131830282F30E024523109F901E95CFE4F408140
S1131840941771F1F901EE0FFF1FEE0FFF1FEC5F0C
S1131850FE4F5281541750F4F901EE0FFF1FEE0FA3
S1131860FF1FEC5FFE4F51814517D0F0F901E95C91
S1131870FE4F90830E94730413C080913601981721
S113188069F020910201281720F4209101018217A8
S113189028F09093360188E20E947304109252015A
S11318A080911102882309F413CD81E080936602AC
S11318B084E08093650280915701EBE5F2E0808338
S11318C08091560181838091550182832091530137
S11318D0822F90E0FC013197E832F10508F065C0F1
S11318E0E257FF4F0C944A0F8091440180935401B6
S11318F05EC0809143018093540159C0809142019C
S11319008093540154C080914F01809354014FC07F
S1131910F7018585880F982F990F990F890F968560
S1131920890F8093540143C080919C01809354019A
S11319303EC080914D018093540139C0E7E1F2E04B
S11319408585880F982F990F990F890F9685890F90
S1131950809354012CC08091B8018093540127C016
S1131960E22FF0E0EF57FE4F8381809354011FC0B4
S1131970E22FF0E0EA56FE4F80818093540117C0B5
S1131980E22FF0E0E35EFE4F8081809354010FC0AC
S1131990E22FF0E0ED5EFE4F80818093540107C09A
S11319A0809136018093540102C0109254018091B9
S11319B0540180935E020E94F80C1092110288CCAC
S11319C081E08093670288E08093B8001092B900A8
S11319D08FEF8093BB0084E08093BC000895109245
S11319E0670281E08093640285EA8093BC000895D5
S11319F0109267021092640285EA8093BC000895F5
S1131A001F920F920FB60F9211242F933F938F932F
S1131A109F93EF93FF938091B900883229F148F4A2
S1131A20803109F446C08831B9F0883009F072C0B9
S1131A300AC0803509F444C0883509F45FC0803495
S1131A4009F068C049C0109268028EEC8093BB0014
S1131A5085E88093BC0064C0809166028093BB00DB
S1131A6085E88093BC005CC080916402813021F4DD
S1131A7085EA8093BC0054C090916802809165020D
S1131A80981780F4E091680281E08E0F80936802D9
S1131A90F0E0E55AFD4F80818093BB0085E8809398
S1131AA0BC003EC084E98093BC0081E0809367025F
S1131AB037C08FEC8093BB0085E88093BC0030C0B6
S1131AC0E091680281E08E0F80936802F0E08091DB
S1131AD0BB00E55AFD4F80832091680230E080917D
S1131AE0650290E001972817390724F485EC809368
S1131AF0BC0016C085E88093BC0012C0E091680267
S1131B0081E08E0F80936802F0E08091BB00E55A7B
S1131B10FD4F808384E98093BC0081E08093670259
S1131B20FF91EF919F918F913F912F910F900FBE55
S1131B300F901F9018955058BB27AA270E94B30DE9
S1131B400C94F70E0E94E90E38F00E94F00E20F07B
S1131B5039F49F3F19F426F40C94E60E0EF4E09544
S1131B60E7FB0C94E00EE92F0E94080F58F3BA1714
S1131B70620773078407950720F079F4A6F50C949F
S1131B802A0F0EF4E0950B2EBA2FA02D0B01B901EC
S1131B9090010C01CA01A0011124FF27591B99F0DF
S1131BA0593F50F4503E68F11A16F040A22F232FEB
S1131BB0342F4427585FF3CF469537952795A7953B
S1131BC0F0405395C9F77EF41F16BA0B620B730BE2
S1131BD0840BBAF09150A1F0FF0FBB1F661F771F53
S1131BE0881FC2F70EC0BA0F621F731F841F48F408
S1131BF0879577956795B795F7959E3F08F0B0CF91
S1131C009395880F08F09927EE0F97958795089577
S1131C100E94BC0E08F481E008950E94210E0C94E9
S1131C20F70E0E94F00E58F00E94E90E40F029F4DD
S1131C305F3F29F00C94E00E51110C942B0F0C947F
S1131C40E60E0E94080F68F39923B1F3552391F32C
S1131C50951B550BBB27AA2762177307840738F017
S1131C609F5F5F4F220F331F441FAA1FA9F335D074
S1131C700E2E3AF0E0E832D091505040E695001C28
S1131C80CAF72BD0FE2F29D0660F771F881FBB1FE2
S1131C90261737074807AB07B0E809F0BB0B802DC0
S1131CA0BF01FF2793585F4F3AF09E3F510578F0EC
S1131CB00C94E00E0C942B0F5F3FE4F3983ED4F3A6
S1131CC0869577956795B795F7959F5FC9F7880FC0
S1131CD0911D9695879597F90895E1E0660F771F12
S1131CE0881FBB1F621773078407BA0720F0621BA3
S1131CF0730B840BBA0BEE1F88F7E0950895E894F4
S1131D0009C097FB3EF490958095709561957F4F3F
S1131D108F4F9F4F9923A9F0F92F96E9BB279395ED
S1131D20F695879577956795B795F111F8CFFAF4FD
S1131D30BB0F11F460FF1BC06F5F7F4F8F4F9F4F2E
S1131D4016C0882311F096E911C0772321F09EE88C
S1131D50872F762F05C0662371F096E8862F70E0F2
S1131D6060E02AF09A95660F771F881FDAF7880FCC
S1131D709695879597F90895990F0008550FAA0B22
S1131D80E0E8FEEF16161706E807F907C0F012168A
S1131D901306E407F50798F0621B730B840B950B8D
S1131DA039F40A2661F0232B242B252B21F40895E2
S1131DB00A2609F4A140A6958FEF811D811D08957F
S1131DC097F99F6780E870E060E008959FEF80ECEA
S1131DD0089500240A94161617061806090608958D
S1131DE000240A9412161306140605060895092EF3
S1131DF00394000C11F4882352F0BB0F40F4BF2B62
S1131E0011F460FF04C06F5F7F4F8F4F9F4F0895A1
S1131E1057FD9058440F551F59F05F3F71F0479597
S1131E20880F97FB991F61F09F3F79F0879508957C
S1131E30121613061406551FF2CF4695F1DF08C09B
S1131E40161617061806991FF1CF869571056105B8
S1131E5008940895E894BB2766277727CB0197F960
S1131E6008950E94BC0E08F48FEF089597FB072E87
S1131E7016F4009407D077FD09D00E945F0F07FC89
S1131E8005D03EF4909581959F4F08957095619586
S1131E907F4F0895EE0FFF1F0590F491E02D0994F4
S1131EA0A29FB001B39FC001A39F700D811D112497
S1131EB0911DB29F700D811D1124911D0895AA1BBF
S1131EC0BB1B51E107C0AA1FBB1FA617B70710F021
S1131ED0A61BB70B881F991F5A95A9F78095909553
S1131EE0BC01CD010895DC01CB01FC01F999FECFC1
S1131EF006C0F2BDE1BDF89A319600B40D9241508E
S1131F005040B8F70895F999FECF92BD81BDF89A73
S1131F10992780B50895DC01CB0103C02D910E945F
S1131F20960F41505040D0F70895262FF999FECFCF
S1131F301FBA92BD81BD20BD0FB6F894FA9AF99AE2
S10D1F400FBE01960895F894FFCF38
S1131F4A0000010000000A0000000A000A010A0059
S1131F5A04010A000A0132000A0163020A0132007A
S1131F6A0A0163022D0050002D0050000A191E2395
S1091F7A283D42474C5AC9
S9030000FC
